{
  "_format": "hh-sol-artifact-1",
  "contractName": "WellsNft",
  "sourceName": "contracts/WellsNft.sol",
  "abi": [
    {
      "inputs": [],
      "stateMutability": "nonpayable",
      "type": "constructor"
    },
    {
      "anonymous": false,
      "inputs": [
        {
          "indexed": true,
          "internalType": "address",
          "name": "owner",
          "type": "address"
        },
        {
          "indexed": true,
          "internalType": "address",
          "name": "approved",
          "type": "address"
        },
        {
          "indexed": true,
          "internalType": "uint256",
          "name": "tokenId",
          "type": "uint256"
        }
      ],
      "name": "Approval",
      "type": "event"
    },
    {
      "anonymous": false,
      "inputs": [
        {
          "indexed": true,
          "internalType": "address",
          "name": "owner",
          "type": "address"
        },
        {
          "indexed": true,
          "internalType": "address",
          "name": "operator",
          "type": "address"
        },
        {
          "indexed": false,
          "internalType": "bool",
          "name": "approved",
          "type": "bool"
        }
      ],
      "name": "ApprovalForAll",
      "type": "event"
    },
    {
      "anonymous": false,
      "inputs": [
        {
          "indexed": true,
          "internalType": "address",
          "name": "previousOwner",
          "type": "address"
        },
        {
          "indexed": true,
          "internalType": "address",
          "name": "newOwner",
          "type": "address"
        }
      ],
      "name": "OwnershipTransferred",
      "type": "event"
    },
    {
      "anonymous": false,
      "inputs": [
        {
          "indexed": false,
          "internalType": "address",
          "name": "account",
          "type": "address"
        }
      ],
      "name": "Paused",
      "type": "event"
    },
    {
      "anonymous": false,
      "inputs": [
        {
          "indexed": true,
          "internalType": "address",
          "name": "from",
          "type": "address"
        },
        {
          "indexed": true,
          "internalType": "address",
          "name": "to",
          "type": "address"
        },
        {
          "indexed": true,
          "internalType": "uint256",
          "name": "tokenId",
          "type": "uint256"
        }
      ],
      "name": "Transfer",
      "type": "event"
    },
    {
      "anonymous": false,
      "inputs": [
        {
          "indexed": false,
          "internalType": "address",
          "name": "account",
          "type": "address"
        }
      ],
      "name": "Unpaused",
      "type": "event"
    },
    {
      "inputs": [
        {
          "internalType": "address",
          "name": "to",
          "type": "address"
        },
        {
          "internalType": "uint256",
          "name": "tokenId",
          "type": "uint256"
        }
      ],
      "name": "approve",
      "outputs": [],
      "stateMutability": "nonpayable",
      "type": "function"
    },
    {
      "inputs": [
        {
          "internalType": "address",
          "name": "owner",
          "type": "address"
        }
      ],
      "name": "balanceOf",
      "outputs": [
        {
          "internalType": "uint256",
          "name": "",
          "type": "uint256"
        }
      ],
      "stateMutability": "view",
      "type": "function"
    },
    {
      "inputs": [
        {
          "internalType": "uint256",
          "name": "tokenId",
          "type": "uint256"
        }
      ],
      "name": "getApproved",
      "outputs": [
        {
          "internalType": "address",
          "name": "",
          "type": "address"
        }
      ],
      "stateMutability": "view",
      "type": "function"
    },
    {
      "inputs": [
        {
          "internalType": "address",
          "name": "owner",
          "type": "address"
        },
        {
          "internalType": "address",
          "name": "operator",
          "type": "address"
        }
      ],
      "name": "isApprovedForAll",
      "outputs": [
        {
          "internalType": "bool",
          "name": "",
          "type": "bool"
        }
      ],
      "stateMutability": "view",
      "type": "function"
    },
    {
      "inputs": [],
      "name": "name",
      "outputs": [
        {
          "internalType": "string",
          "name": "",
          "type": "string"
        }
      ],
      "stateMutability": "view",
      "type": "function"
    },
    {
      "inputs": [],
      "name": "owner",
      "outputs": [
        {
          "internalType": "address",
          "name": "",
          "type": "address"
        }
      ],
      "stateMutability": "view",
      "type": "function"
    },
    {
      "inputs": [
        {
          "internalType": "uint256",
          "name": "tokenId",
          "type": "uint256"
        }
      ],
      "name": "ownerOf",
      "outputs": [
        {
          "internalType": "address",
          "name": "",
          "type": "address"
        }
      ],
      "stateMutability": "view",
      "type": "function"
    },
    {
      "inputs": [],
      "name": "pause",
      "outputs": [],
      "stateMutability": "nonpayable",
      "type": "function"
    },
    {
      "inputs": [],
      "name": "paused",
      "outputs": [
        {
          "internalType": "bool",
          "name": "",
          "type": "bool"
        }
      ],
      "stateMutability": "view",
      "type": "function"
    },
    {
      "inputs": [],
      "name": "renounceOwnership",
      "outputs": [],
      "stateMutability": "nonpayable",
      "type": "function"
    },
    {
      "inputs": [
        {
          "internalType": "address",
          "name": "to",
          "type": "address"
        },
        {
          "internalType": "string",
          "name": "uri",
          "type": "string"
        }
      ],
      "name": "safeMint",
      "outputs": [],
      "stateMutability": "nonpayable",
      "type": "function"
    },
    {
      "inputs": [
        {
          "internalType": "address",
          "name": "from",
          "type": "address"
        },
        {
          "internalType": "address",
          "name": "to",
          "type": "address"
        },
        {
          "internalType": "uint256",
          "name": "tokenId",
          "type": "uint256"
        }
      ],
      "name": "safeTransferFrom",
      "outputs": [],
      "stateMutability": "nonpayable",
      "type": "function"
    },
    {
      "inputs": [
        {
          "internalType": "address",
          "name": "from",
          "type": "address"
        },
        {
          "internalType": "address",
          "name": "to",
          "type": "address"
        },
        {
          "internalType": "uint256",
          "name": "tokenId",
          "type": "uint256"
        },
        {
          "internalType": "bytes",
          "name": "data",
          "type": "bytes"
        }
      ],
      "name": "safeTransferFrom",
      "outputs": [],
      "stateMutability": "nonpayable",
      "type": "function"
    },
    {
      "inputs": [
        {
          "internalType": "address",
          "name": "operator",
          "type": "address"
        },
        {
          "internalType": "bool",
          "name": "approved",
          "type": "bool"
        }
      ],
      "name": "setApprovalForAll",
      "outputs": [],
      "stateMutability": "nonpayable",
      "type": "function"
    },
    {
      "inputs": [
        {
          "internalType": "bytes4",
          "name": "interfaceId",
          "type": "bytes4"
        }
      ],
      "name": "supportsInterface",
      "outputs": [
        {
          "internalType": "bool",
          "name": "",
          "type": "bool"
        }
      ],
      "stateMutability": "view",
      "type": "function"
    },
    {
      "inputs": [],
      "name": "symbol",
      "outputs": [
        {
          "internalType": "string",
          "name": "",
          "type": "string"
        }
      ],
      "stateMutability": "view",
      "type": "function"
    },
    {
      "inputs": [
        {
          "internalType": "uint256",
          "name": "tokenId",
          "type": "uint256"
        }
      ],
      "name": "tokenURI",
      "outputs": [
        {
          "internalType": "string",
          "name": "",
          "type": "string"
        }
      ],
      "stateMutability": "view",
      "type": "function"
    },
    {
      "inputs": [
        {
          "internalType": "address",
          "name": "from",
          "type": "address"
        },
        {
          "internalType": "address",
          "name": "to",
          "type": "address"
        },
        {
          "internalType": "uint256",
          "name": "tokenId",
          "type": "uint256"
        }
      ],
      "name": "transferFrom",
      "outputs": [],
      "stateMutability": "nonpayable",
      "type": "function"
    },
    {
      "inputs": [
        {
          "internalType": "address",
          "name": "newOwner",
          "type": "address"
        }
      ],
      "name": "transferOwnership",
      "outputs": [],
      "stateMutability": "nonpayable",
      "type": "function"
    },
    {
      "inputs": [],
      "name": "unpause",
      "outputs": [],
      "stateMutability": "nonpayable",
      "type": "function"
    }
  ],
  "bytecode": "0x60806040523480156200001157600080fd5b506040518060400160405280600881526020017f57656c6c734e66740000000000000000000000000000000000000000000000008152506040518060400160405280600681526020017f57546f6b656e0000000000000000000000000000000000000000000000000000815250816000908051906020019062000096929190620001c1565b508060019080519060200190620000af929190620001c1565b5050506000600660006101000a81548160ff021916908315150217905550620000ed620000e1620000f360201b60201c565b620000fb60201b60201c565b620002d6565b600033905090565b6000600860009054906101000a900473ffffffffffffffffffffffffffffffffffffffff16905081600860006101000a81548173ffffffffffffffffffffffffffffffffffffffff021916908373ffffffffffffffffffffffffffffffffffffffff1602179055508173ffffffffffffffffffffffffffffffffffffffff168173ffffffffffffffffffffffffffffffffffffffff167f8be0079c531659141344cd1fd0a4f28419497f9722a3daafe3b4186f6b6457e060405160405180910390a35050565b828054620001cf90620002a0565b90600052602060002090601f016020900481019282620001f357600085556200023f565b82601f106200020e57805160ff19168380011785556200023f565b828001600101855582156200023f579182015b828111156200023e57825182559160200191906001019062000221565b5b5090506200024e919062000252565b5090565b5b808211156200026d57600081600090555060010162000253565b5090565b7f4e487b7100000000000000000000000000000000000000000000000000000000600052602260045260246000fd5b60006002820490506001821680620002b957607f821691505b60208210811415620002d057620002cf62000271565b5b50919050565b6133ed80620002e66000396000f3fe608060405234801561001057600080fd5b506004361061012c5760003560e01c8063715018a6116100ad578063b88d4fde11610071578063b88d4fde146102f7578063c87b56dd14610313578063d204c45e14610343578063e985e9c51461035f578063f2fde38b1461038f5761012c565b8063715018a61461028b5780638456cb59146102955780638da5cb5b1461029f57806395d89b41146102bd578063a22cb465146102db5761012c565b80633f4ba83a116100f45780633f4ba83a146101e757806342842e0e146101f15780635c975abb1461020d5780636352211e1461022b57806370a082311461025b5761012c565b806301ffc9a71461013157806306fdde0314610161578063081812fc1461017f578063095ea7b3146101af57806323b872dd146101cb575b600080fd5b61014b60048036038101906101469190612166565b6103ab565b60405161015891906121ae565b60405180910390f35b61016961048d565b6040516101769190612262565b60405180910390f35b610199600480360381019061019491906122ba565b61051f565b6040516101a69190612328565b60405180910390f35b6101c960048036038101906101c4919061236f565b610565565b005b6101e560048036038101906101e091906123af565b61067d565b005b6101ef6106dd565b005b61020b600480360381019061020691906123af565b6106ef565b005b61021561070f565b60405161022291906121ae565b60405180910390f35b610245600480360381019061024091906122ba565b610726565b6040516102529190612328565b60405180910390f35b61027560048036038101906102709190612402565b6107ad565b604051610282919061243e565b60405180910390f35b610293610865565b005b61029d610879565b005b6102a761088b565b6040516102b49190612328565b60405180910390f35b6102c56108b5565b6040516102d29190612262565b60405180910390f35b6102f560048036038101906102f09190612485565b610947565b005b610311600480360381019061030c91906125fa565b61095d565b005b61032d600480360381019061032891906122ba565b6109bf565b60405161033a9190612262565b60405180910390f35b61035d6004803603810190610358919061271e565b6109d1565b005b6103796004803603810190610374919061277a565b610b44565b60405161038691906121ae565b60405180910390f35b6103a960048036038101906103a49190612402565b610bd8565b005b60007f80ac58cd000000000000000000000000000000000000000000000000000000007bffffffffffffffffffffffffffffffffffffffffffffffffffffffff1916827bffffffffffffffffffffffffffffffffffffffffffffffffffffffff1916148061047657507f5b5e139f000000000000000000000000000000000000000000000000000000007bffffffffffffffffffffffffffffffffffffffffffffffffffffffff1916827bffffffffffffffffffffffffffffffffffffffffffffffffffffffff1916145b80610486575061048582610c5c565b5b9050919050565b60606000805461049c906127e9565b80601f01602080910402602001604051908101604052809291908181526020018280546104c8906127e9565b80156105155780601f106104ea57610100808354040283529160200191610515565b820191906000526020600020905b8154815290600101906020018083116104f857829003601f168201915b5050505050905090565b600061052a82610cc6565b6004600083815260200190815260200160002060009054906101000a900473ffffffffffffffffffffffffffffffffffffffff169050919050565b600061057082610726565b90508073ffffffffffffffffffffffffffffffffffffffff168373ffffffffffffffffffffffffffffffffffffffff1614156105e1576040517f08c379a00000000000000000000000000000000000000000000000000000000081526004016105d89061288d565b60405180910390fd5b8073ffffffffffffffffffffffffffffffffffffffff16610600610d11565b73ffffffffffffffffffffffffffffffffffffffff16148061062f575061062e81610629610d11565b610b44565b5b61066e576040517f08c379a00000000000000000000000000000000000000000000000000000000081526004016106659061291f565b60405180910390fd5b6106788383610d19565b505050565b61068e610688610d11565b82610dd2565b6106cd576040517f08c379a00000000000000000000000000000000000000000000000000000000081526004016106c4906129b1565b60405180910390fd5b6106d8838383610e67565b505050565b6106e5611161565b6106ed6111df565b565b61070a8383836040518060200160405280600081525061095d565b505050565b6000600660009054906101000a900460ff16905090565b60008061073283611242565b9050600073ffffffffffffffffffffffffffffffffffffffff168173ffffffffffffffffffffffffffffffffffffffff1614156107a4576040517f08c379a000000000000000000000000000000000000000000000000000000000815260040161079b90612a1d565b60405180910390fd5b80915050919050565b60008073ffffffffffffffffffffffffffffffffffffffff168273ffffffffffffffffffffffffffffffffffffffff16141561081e576040517f08c379a000000000000000000000000000000000000000000000000000000000815260040161081590612aaf565b60405180910390fd5b600360008373ffffffffffffffffffffffffffffffffffffffff1673ffffffffffffffffffffffffffffffffffffffff168152602001908152602001600020549050919050565b61086d611161565b610877600061127f565b565b610881611161565b610889611345565b565b6000600860009054906101000a900473ffffffffffffffffffffffffffffffffffffffff16905090565b6060600180546108c4906127e9565b80601f01602080910402602001604051908101604052809291908181526020018280546108f0906127e9565b801561093d5780601f106109125761010080835404028352916020019161093d565b820191906000526020600020905b81548152906001019060200180831161092057829003601f168201915b5050505050905090565b610959610952610d11565b83836113a8565b5050565b61096e610968610d11565b83610dd2565b6109ad576040517f08c379a00000000000000000000000000000000000000000000000000000000081526004016109a4906129b1565b60405180910390fd5b6109b984848484611515565b50505050565b60606109ca82611571565b9050919050565b6109d9611161565b600a6109e56009611684565b10610a25576040517f08c379a0000000000000000000000000000000000000000000000000000000008152600401610a1c90612b1b565b60405180910390fd5b600081511415610a6a576040517f08c379a0000000000000000000000000000000000000000000000000000000008152600401610a6190612b87565b60405180910390fd5b60001515600a82604051610a7e9190612be3565b908152602001604051809103902060009054906101000a900460ff16151514610adc576040517f08c379a0000000000000000000000000000000000000000000000000000000008152600401610ad390612c46565b60405180910390fd5b610ae66009611692565b6000610af26009611684565b9050610afe83826116a8565b610b0881836116c6565b6001600a83604051610b1a9190612be3565b908152602001604051809103902060006101000a81548160ff021916908315150217905550505050565b6000600560008473ffffffffffffffffffffffffffffffffffffffff1673ffffffffffffffffffffffffffffffffffffffff16815260200190815260200160002060008373ffffffffffffffffffffffffffffffffffffffff1673ffffffffffffffffffffffffffffffffffffffff16815260200190815260200160002060009054906101000a900460ff16905092915050565b610be0611161565b600073ffffffffffffffffffffffffffffffffffffffff168173ffffffffffffffffffffffffffffffffffffffff161415610c50576040517f08c379a0000000000000000000000000000000000000000000000000000000008152600401610c4790612cd8565b60405180910390fd5b610c598161127f565b50565b60007f01ffc9a7000000000000000000000000000000000000000000000000000000007bffffffffffffffffffffffffffffffffffffffffffffffffffffffff1916827bffffffffffffffffffffffffffffffffffffffffffffffffffffffff1916149050919050565b610ccf8161173a565b610d0e576040517f08c379a0000000000000000000000000000000000000000000000000000000008152600401610d0590612a1d565b60405180910390fd5b50565b600033905090565b816004600083815260200190815260200160002060006101000a81548173ffffffffffffffffffffffffffffffffffffffff021916908373ffffffffffffffffffffffffffffffffffffffff160217905550808273ffffffffffffffffffffffffffffffffffffffff16610d8c83610726565b73ffffffffffffffffffffffffffffffffffffffff167f8c5be1e5ebec7d5bd14f71427d1e84f3dd0314c0f7b2291e5b200ac8c7c3b92560405160405180910390a45050565b600080610dde83610726565b90508073ffffffffffffffffffffffffffffffffffffffff168473ffffffffffffffffffffffffffffffffffffffff161480610e205750610e1f8185610b44565b5b80610e5e57508373ffffffffffffffffffffffffffffffffffffffff16610e468461051f565b73ffffffffffffffffffffffffffffffffffffffff16145b91505092915050565b8273ffffffffffffffffffffffffffffffffffffffff16610e8782610726565b73ffffffffffffffffffffffffffffffffffffffff1614610edd576040517f08c379a0000000000000000000000000000000000000000000000000000000008152600401610ed490612d6a565b60405180910390fd5b600073ffffffffffffffffffffffffffffffffffffffff168273ffffffffffffffffffffffffffffffffffffffff161415610f4d576040517f08c379a0000000000000000000000000000000000000000000000000000000008152600401610f4490612dfc565b60405180910390fd5b610f5a838383600161177b565b8273ffffffffffffffffffffffffffffffffffffffff16610f7a82610726565b73ffffffffffffffffffffffffffffffffffffffff1614610fd0576040517f08c379a0000000000000000000000000000000000000000000000000000000008152600401610fc790612d6a565b60405180910390fd5b6004600082815260200190815260200160002060006101000a81549073ffffffffffffffffffffffffffffffffffffffff02191690556001600360008573ffffffffffffffffffffffffffffffffffffffff1673ffffffffffffffffffffffffffffffffffffffff168152602001908152602001600020600082825403925050819055506001600360008473ffffffffffffffffffffffffffffffffffffffff1673ffffffffffffffffffffffffffffffffffffffff16815260200190815260200160002060008282540192505081905550816002600083815260200190815260200160002060006101000a81548173ffffffffffffffffffffffffffffffffffffffff021916908373ffffffffffffffffffffffffffffffffffffffff160217905550808273ffffffffffffffffffffffffffffffffffffffff168473ffffffffffffffffffffffffffffffffffffffff167fddf252ad1be2c89b69c2b068fc378daa952ba7f163c4a11628f55a4df523b3ef60405160405180910390a461115c8383836001611795565b505050565b611169610d11565b73ffffffffffffffffffffffffffffffffffffffff1661118761088b565b73ffffffffffffffffffffffffffffffffffffffff16146111dd576040517f08c379a00000000000000000000000000000000000000000000000000000000081526004016111d490612e68565b60405180910390fd5b565b6111e761179b565b6000600660006101000a81548160ff0219169083151502179055507f5db9ee0a495bf2e6ff9c91a7834c1ba4fdd244a5e8aa4e537bd38aeae4b073aa61122b610d11565b6040516112389190612328565b60405180910390a1565b60006002600083815260200190815260200160002060009054906101000a900473ffffffffffffffffffffffffffffffffffffffff169050919050565b6000600860009054906101000a900473ffffffffffffffffffffffffffffffffffffffff16905081600860006101000a81548173ffffffffffffffffffffffffffffffffffffffff021916908373ffffffffffffffffffffffffffffffffffffffff1602179055508173ffffffffffffffffffffffffffffffffffffffff168173ffffffffffffffffffffffffffffffffffffffff167f8be0079c531659141344cd1fd0a4f28419497f9722a3daafe3b4186f6b6457e060405160405180910390a35050565b61134d6117e4565b6001600660006101000a81548160ff0219169083151502179055507f62e78cea01bee320cd4e420270b5ea74000d11b0c9f74754ebdbfc544b05a258611391610d11565b60405161139e9190612328565b60405180910390a1565b8173ffffffffffffffffffffffffffffffffffffffff168373ffffffffffffffffffffffffffffffffffffffff161415611417576040517f08c379a000000000000000000000000000000000000000000000000000000000815260040161140e90612ed4565b60405180910390fd5b80600560008573ffffffffffffffffffffffffffffffffffffffff1673ffffffffffffffffffffffffffffffffffffffff16815260200190815260200160002060008473ffffffffffffffffffffffffffffffffffffffff1673ffffffffffffffffffffffffffffffffffffffff16815260200190815260200160002060006101000a81548160ff0219169083151502179055508173ffffffffffffffffffffffffffffffffffffffff168373ffffffffffffffffffffffffffffffffffffffff167f17307eab39ab6107e8899845ad3d59bd9653f200f220920489ca2b5937696c318360405161150891906121ae565b60405180910390a3505050565b611520848484610e67565b61152c8484848461182e565b61156b576040517f08c379a000000000000000000000000000000000000000000000000000000000815260040161156290612f66565b60405180910390fd5b50505050565b606061157c82610cc6565b600060076000848152602001908152602001600020805461159c906127e9565b80601f01602080910402602001604051908101604052809291908181526020018280546115c8906127e9565b80156116155780601f106115ea57610100808354040283529160200191611615565b820191906000526020600020905b8154815290600101906020018083116115f857829003601f168201915b5050505050905060006116266119c5565b905060008151141561163c57819250505061167f565b600082511115611671578082604051602001611659929190612f86565b6040516020818303038152906040529250505061167f565b61167a84611a02565b925050505b919050565b600081600001549050919050565b6001816000016000828254019250508190555050565b6116c2828260405180602001604052806000815250611a6a565b5050565b6116cf8261173a565b61170e576040517f08c379a00000000000000000000000000000000000000000000000000000000081526004016117059061301c565b60405180910390fd5b80600760008481526020019081526020016000209080519060200190611735929190612057565b505050565b60008073ffffffffffffffffffffffffffffffffffffffff1661175c83611242565b73ffffffffffffffffffffffffffffffffffffffff1614159050919050565b6117836117e4565b61178f84848484611ac5565b50505050565b50505050565b6117a361070f565b6117e2576040517f08c379a00000000000000000000000000000000000000000000000000000000081526004016117d990613088565b60405180910390fd5b565b6117ec61070f565b1561182c576040517f08c379a0000000000000000000000000000000000000000000000000000000008152600401611823906130f4565b60405180910390fd5b565b600061184f8473ffffffffffffffffffffffffffffffffffffffff16611beb565b156119b8578373ffffffffffffffffffffffffffffffffffffffff1663150b7a02611878610d11565b8786866040518563ffffffff1660e01b815260040161189a9493929190613169565b602060405180830381600087803b1580156118b457600080fd5b505af19250505080156118e557506040513d601f19601f820116820180604052508101906118e291906131ca565b60015b611968573d8060008114611915576040519150601f19603f3d011682016040523d82523d6000602084013e61191a565b606091505b50600081511415611960576040517f08c379a000000000000000000000000000000000000000000000000000000000815260040161195790612f66565b60405180910390fd5b805181602001fd5b63150b7a0260e01b7bffffffffffffffffffffffffffffffffffffffffffffffffffffffff1916817bffffffffffffffffffffffffffffffffffffffffffffffffffffffff1916149150506119bd565b600190505b949350505050565b60606040518060400160405280601581526020017f68747470733a2f2f7733732e6c696e6b2f697066730000000000000000000000815250905090565b6060611a0d82610cc6565b6000611a176119c5565b90506000815111611a375760405180602001604052806000815250611a62565b80611a4184611c0e565b604051602001611a52929190612f86565b6040516020818303038152906040525b915050919050565b611a748383611ce6565b611a81600084848461182e565b611ac0576040517f08c379a0000000000000000000000000000000000000000000000000000000008152600401611ab790612f66565b60405180910390fd5b505050565b6001811115611be557600073ffffffffffffffffffffffffffffffffffffffff168473ffffffffffffffffffffffffffffffffffffffff1614611b595780600360008673ffffffffffffffffffffffffffffffffffffffff1673ffffffffffffffffffffffffffffffffffffffff1681526020019081526020016000206000828254611b519190613226565b925050819055505b600073ffffffffffffffffffffffffffffffffffffffff168373ffffffffffffffffffffffffffffffffffffffff1614611be45780600360008573ffffffffffffffffffffffffffffffffffffffff1673ffffffffffffffffffffffffffffffffffffffff1681526020019081526020016000206000828254611bdc919061325a565b925050819055505b5b50505050565b6000808273ffffffffffffffffffffffffffffffffffffffff163b119050919050565b606060006001611c1d84611f04565b01905060008167ffffffffffffffff811115611c3c57611c3b6124cf565b5b6040519080825280601f01601f191660200182016040528015611c6e5781602001600182028036833780820191505090505b509050600082602001820190505b600115611cdb578080600190039150507f3031323334353637383961626364656600000000000000000000000000000000600a86061a8153600a8581611cc557611cc46132b0565b5b0494506000851415611cd657611cdb565b611c7c565b819350505050919050565b600073ffffffffffffffffffffffffffffffffffffffff168273ffffffffffffffffffffffffffffffffffffffff161415611d56576040517f08c379a0000000000000000000000000000000000000000000000000000000008152600401611d4d9061332b565b60405180910390fd5b611d5f8161173a565b15611d9f576040517f08c379a0000000000000000000000000000000000000000000000000000000008152600401611d9690613397565b60405180910390fd5b611dad60008383600161177b565b611db68161173a565b15611df6576040517f08c379a0000000000000000000000000000000000000000000000000000000008152600401611ded90613397565b60405180910390fd5b6001600360008473ffffffffffffffffffffffffffffffffffffffff1673ffffffffffffffffffffffffffffffffffffffff16815260200190815260200160002060008282540192505081905550816002600083815260200190815260200160002060006101000a81548173ffffffffffffffffffffffffffffffffffffffff021916908373ffffffffffffffffffffffffffffffffffffffff160217905550808273ffffffffffffffffffffffffffffffffffffffff16600073ffffffffffffffffffffffffffffffffffffffff167fddf252ad1be2c89b69c2b068fc378daa952ba7f163c4a11628f55a4df523b3ef60405160405180910390a4611f00600083836001611795565b5050565b600080600090507a184f03e93ff9f4daa797ed6e38ed64bf6a1f0100000000000000008310611f62577a184f03e93ff9f4daa797ed6e38ed64bf6a1f0100000000000000008381611f5857611f576132b0565b5b0492506040810190505b6d04ee2d6d415b85acef81000000008310611f9f576d04ee2d6d415b85acef81000000008381611f9557611f946132b0565b5b0492506020810190505b662386f26fc100008310611fce57662386f26fc100008381611fc457611fc36132b0565b5b0492506010810190505b6305f5e1008310611ff7576305f5e1008381611fed57611fec6132b0565b5b0492506008810190505b612710831061201c576127108381612012576120116132b0565b5b0492506004810190505b6064831061203f5760648381612035576120346132b0565b5b0492506002810190505b600a831061204e576001810190505b80915050919050565b828054612063906127e9565b90600052602060002090601f01602090048101928261208557600085556120cc565b82601f1061209e57805160ff19168380011785556120cc565b828001600101855582156120cc579182015b828111156120cb5782518255916020019190600101906120b0565b5b5090506120d991906120dd565b5090565b5b808211156120f65760008160009055506001016120de565b5090565b6000604051905090565b600080fd5b600080fd5b60007fffffffff0000000000000000000000000000000000000000000000000000000082169050919050565b6121438161210e565b811461214e57600080fd5b50565b6000813590506121608161213a565b92915050565b60006020828403121561217c5761217b612104565b5b600061218a84828501612151565b91505092915050565b60008115159050919050565b6121a881612193565b82525050565b60006020820190506121c3600083018461219f565b92915050565b600081519050919050565b600082825260208201905092915050565b60005b838110156122035780820151818401526020810190506121e8565b83811115612212576000848401525b50505050565b6000601f19601f8301169050919050565b6000612234826121c9565b61223e81856121d4565b935061224e8185602086016121e5565b61225781612218565b840191505092915050565b6000602082019050818103600083015261227c8184612229565b905092915050565b6000819050919050565b61229781612284565b81146122a257600080fd5b50565b6000813590506122b48161228e565b92915050565b6000602082840312156122d0576122cf612104565b5b60006122de848285016122a5565b91505092915050565b600073ffffffffffffffffffffffffffffffffffffffff82169050919050565b6000612312826122e7565b9050919050565b61232281612307565b82525050565b600060208201905061233d6000830184612319565b92915050565b61234c81612307565b811461235757600080fd5b50565b60008135905061236981612343565b92915050565b6000806040838503121561238657612385612104565b5b60006123948582860161235a565b92505060206123a5858286016122a5565b9150509250929050565b6000806000606084860312156123c8576123c7612104565b5b60006123d68682870161235a565b93505060206123e78682870161235a565b92505060406123f8868287016122a5565b9150509250925092565b60006020828403121561241857612417612104565b5b60006124268482850161235a565b91505092915050565b61243881612284565b82525050565b6000602082019050612453600083018461242f565b92915050565b61246281612193565b811461246d57600080fd5b50565b60008135905061247f81612459565b92915050565b6000806040838503121561249c5761249b612104565b5b60006124aa8582860161235a565b92505060206124bb85828601612470565b9150509250929050565b600080fd5b600080fd5b7f4e487b7100000000000000000000000000000000000000000000000000000000600052604160045260246000fd5b61250782612218565b810181811067ffffffffffffffff82111715612526576125256124cf565b5b80604052505050565b60006125396120fa565b905061254582826124fe565b919050565b600067ffffffffffffffff821115612565576125646124cf565b5b61256e82612218565b9050602081019050919050565b82818337600083830152505050565b600061259d6125988461254a565b61252f565b9050828152602081018484840111156125b9576125b86124ca565b5b6125c484828561257b565b509392505050565b600082601f8301126125e1576125e06124c5565b5b81356125f184826020860161258a565b91505092915050565b6000806000806080858703121561261457612613612104565b5b60006126228782880161235a565b94505060206126338782880161235a565b9350506040612644878288016122a5565b925050606085013567ffffffffffffffff81111561266557612664612109565b5b612671878288016125cc565b91505092959194509250565b600067ffffffffffffffff821115612698576126976124cf565b5b6126a182612218565b9050602081019050919050565b60006126c16126bc8461267d565b61252f565b9050828152602081018484840111156126dd576126dc6124ca565b5b6126e884828561257b565b509392505050565b600082601f830112612705576127046124c5565b5b81356127158482602086016126ae565b91505092915050565b6000806040838503121561273557612734612104565b5b60006127438582860161235a565b925050602083013567ffffffffffffffff81111561276457612763612109565b5b612770858286016126f0565b9150509250929050565b6000806040838503121561279157612790612104565b5b600061279f8582860161235a565b92505060206127b08582860161235a565b9150509250929050565b7f4e487b7100000000000000000000000000000000000000000000000000000000600052602260045260246000fd5b6000600282049050600182168061280157607f821691505b60208210811415612815576128146127ba565b5b50919050565b7f4552433732313a20617070726f76616c20746f2063757272656e74206f776e6560008201527f7200000000000000000000000000000000000000000000000000000000000000602082015250565b60006128776021836121d4565b91506128828261281b565b604082019050919050565b600060208201905081810360008301526128a68161286a565b9050919050565b7f4552433732313a20617070726f76652063616c6c6572206973206e6f7420746f60008201527f6b656e206f776e6572206f7220617070726f76656420666f7220616c6c000000602082015250565b6000612909603d836121d4565b9150612914826128ad565b604082019050919050565b60006020820190508181036000830152612938816128fc565b9050919050565b7f4552433732313a2063616c6c6572206973206e6f7420746f6b656e206f776e6560008201527f72206f7220617070726f76656400000000000000000000000000000000000000602082015250565b600061299b602d836121d4565b91506129a68261293f565b604082019050919050565b600060208201905081810360008301526129ca8161298e565b9050919050565b7f4552433732313a20696e76616c696420746f6b656e2049440000000000000000600082015250565b6000612a076018836121d4565b9150612a12826129d1565b602082019050919050565b60006020820190508181036000830152612a36816129fa565b9050919050565b7f4552433732313a2061646472657373207a65726f206973206e6f74206120766160008201527f6c6964206f776e65720000000000000000000000000000000000000000000000602082015250565b6000612a996029836121d4565b9150612aa482612a3d565b604082019050919050565b60006020820190508181036000830152612ac881612a8c565b9050919050565b7f546f6b656e206c696d6974207265616368656400000000000000000000000000600082015250565b6000612b056013836121d4565b9150612b1082612acf565b602082019050919050565b60006020820190508181036000830152612b3481612af8565b9050919050565b7f55524c2063616e6e6f7420626520656d70747900000000000000000000000000600082015250565b6000612b716013836121d4565b9150612b7c82612b3b565b602082019050919050565b60006020820190508181036000830152612ba081612b64565b9050919050565b600081905092915050565b6000612bbd826121c9565b612bc78185612ba7565b9350612bd78185602086016121e5565b80840191505092915050565b6000612bef8284612bb2565b915081905092915050565b7f546f6b656e20616c726561647920657869737473000000000000000000000000600082015250565b6000612c306014836121d4565b9150612c3b82612bfa565b602082019050919050565b60006020820190508181036000830152612c5f81612c23565b9050919050565b7f4f776e61626c653a206e6577206f776e657220697320746865207a65726f206160008201527f6464726573730000000000000000000000000000000000000000000000000000602082015250565b6000612cc26026836121d4565b9150612ccd82612c66565b604082019050919050565b60006020820190508181036000830152612cf181612cb5565b9050919050565b7f4552433732313a207472616e736665722066726f6d20696e636f72726563742060008201527f6f776e6572000000000000000000000000000000000000000000000000000000602082015250565b6000612d546025836121d4565b9150612d5f82612cf8565b604082019050919050565b60006020820190508181036000830152612d8381612d47565b9050919050565b7f4552433732313a207472616e7366657220746f20746865207a65726f2061646460008201527f7265737300000000000000000000000000000000000000000000000000000000602082015250565b6000612de66024836121d4565b9150612df182612d8a565b604082019050919050565b60006020820190508181036000830152612e1581612dd9565b9050919050565b7f4f776e61626c653a2063616c6c6572206973206e6f7420746865206f776e6572600082015250565b6000612e526020836121d4565b9150612e5d82612e1c565b602082019050919050565b60006020820190508181036000830152612e8181612e45565b9050919050565b7f4552433732313a20617070726f766520746f2063616c6c657200000000000000600082015250565b6000612ebe6019836121d4565b9150612ec982612e88565b602082019050919050565b60006020820190508181036000830152612eed81612eb1565b9050919050565b7f4552433732313a207472616e7366657220746f206e6f6e20455243373231526560008201527f63656976657220696d706c656d656e7465720000000000000000000000000000602082015250565b6000612f506032836121d4565b9150612f5b82612ef4565b604082019050919050565b60006020820190508181036000830152612f7f81612f43565b9050919050565b6000612f928285612bb2565b9150612f9e8284612bb2565b91508190509392505050565b7f45524337323155524953746f726167653a2055524920736574206f66206e6f6e60008201527f6578697374656e7420746f6b656e000000000000000000000000000000000000602082015250565b6000613006602e836121d4565b915061301182612faa565b604082019050919050565b6000602082019050818103600083015261303581612ff9565b9050919050565b7f5061757361626c653a206e6f7420706175736564000000000000000000000000600082015250565b60006130726014836121d4565b915061307d8261303c565b602082019050919050565b600060208201905081810360008301526130a181613065565b9050919050565b7f5061757361626c653a2070617573656400000000000000000000000000000000600082015250565b60006130de6010836121d4565b91506130e9826130a8565b602082019050919050565b6000602082019050818103600083015261310d816130d1565b9050919050565b600081519050919050565b600082825260208201905092915050565b600061313b82613114565b613145818561311f565b93506131558185602086016121e5565b61315e81612218565b840191505092915050565b600060808201905061317e6000830187612319565b61318b6020830186612319565b613198604083018561242f565b81810360608301526131aa8184613130565b905095945050505050565b6000815190506131c48161213a565b92915050565b6000602082840312156131e0576131df612104565b5b60006131ee848285016131b5565b91505092915050565b7f4e487b7100000000000000000000000000000000000000000000000000000000600052601160045260246000fd5b600061323182612284565b915061323c83612284565b92508282101561324f5761324e6131f7565b5b828203905092915050565b600061326582612284565b915061327083612284565b9250827fffffffffffffffffffffffffffffffffffffffffffffffffffffffffffffffff038211156132a5576132a46131f7565b5b828201905092915050565b7f4e487b7100000000000000000000000000000000000000000000000000000000600052601260045260246000fd5b7f4552433732313a206d696e7420746f20746865207a65726f2061646472657373600082015250565b60006133156020836121d4565b9150613320826132df565b602082019050919050565b6000602082019050818103600083015261334481613308565b9050919050565b7f4552433732313a20746f6b656e20616c7265616479206d696e74656400000000600082015250565b6000613381601c836121d4565b915061338c8261334b565b602082019050919050565b600060208201905081810360008301526133b081613374565b905091905056fea2646970667358221220806afeb6de7704510893d5c6bae456b0eb25cbd1e783ad7c3bd100a0ed02bfe264736f6c63430008090033",
  "linkReferences": {},
  "deployedLinkReferences": {}
}