{
  "_format": "hh-sol-artifact-1",
  "contractName": "Auditsiq",
  "sourceName": "contracts/Auditsiq.sol",
  "abi": [
    {
      "inputs": [
        {
          "internalType": "bool",
          "name": "ispaused",
          "type": "bool"
        }
      ],
      "stateMutability": "nonpayable",
      "type": "constructor"
    },
    {
      "anonymous": false,
      "inputs": [
        {
          "indexed": true,
          "internalType": "address",
          "name": "owner",
          "type": "address"
        },
        {
          "indexed": true,
          "internalType": "address",
          "name": "approved",
          "type": "address"
        },
        {
          "indexed": true,
          "internalType": "uint256",
          "name": "tokenId",
          "type": "uint256"
        }
      ],
      "name": "Approval",
      "type": "event"
    },
    {
      "anonymous": false,
      "inputs": [
        {
          "indexed": true,
          "internalType": "address",
          "name": "owner",
          "type": "address"
        },
        {
          "indexed": true,
          "internalType": "address",
          "name": "operator",
          "type": "address"
        },
        {
          "indexed": false,
          "internalType": "bool",
          "name": "approved",
          "type": "bool"
        }
      ],
      "name": "ApprovalForAll",
      "type": "event"
    },
    {
      "anonymous": false,
      "inputs": [
        {
          "indexed": true,
          "internalType": "address",
          "name": "previousOwner",
          "type": "address"
        },
        {
          "indexed": true,
          "internalType": "address",
          "name": "newOwner",
          "type": "address"
        }
      ],
      "name": "OwnershipTransferred",
      "type": "event"
    },
    {
      "anonymous": false,
      "inputs": [
        {
          "indexed": true,
          "internalType": "address",
          "name": "from",
          "type": "address"
        },
        {
          "indexed": true,
          "internalType": "address",
          "name": "to",
          "type": "address"
        },
        {
          "indexed": true,
          "internalType": "uint256",
          "name": "tokenId",
          "type": "uint256"
        }
      ],
      "name": "Transfer",
      "type": "event"
    },
    {
      "inputs": [
        {
          "internalType": "address[]",
          "name": "_auditor",
          "type": "address[]"
        }
      ],
      "name": "addAuditors",
      "outputs": [
        {
          "internalType": "bool",
          "name": "",
          "type": "bool"
        }
      ],
      "stateMutability": "nonpayable",
      "type": "function"
    },
    {
      "inputs": [
        {
          "internalType": "address",
          "name": "_admin",
          "type": "address"
        },
        {
          "internalType": "bool",
          "name": "_status",
          "type": "bool"
        }
      ],
      "name": "addCompanyAdmins",
      "outputs": [
        {
          "internalType": "bool",
          "name": "",
          "type": "bool"
        }
      ],
      "stateMutability": "nonpayable",
      "type": "function"
    },
    {
      "inputs": [
        {
          "internalType": "address",
          "name": "aud",
          "type": "address"
        }
      ],
      "name": "addSingleAuditor",
      "outputs": [],
      "stateMutability": "nonpayable",
      "type": "function"
    },
    {
      "inputs": [
        {
          "internalType": "string",
          "name": "_uri",
          "type": "string"
        },
        {
          "internalType": "address",
          "name": "company_admin",
          "type": "address"
        }
      ],
      "name": "addToken",
      "outputs": [
        {
          "internalType": "uint256",
          "name": "",
          "type": "uint256"
        }
      ],
      "stateMutability": "nonpayable",
      "type": "function"
    },
    {
      "inputs": [
        {
          "internalType": "address",
          "name": "to",
          "type": "address"
        },
        {
          "internalType": "uint256",
          "name": "tokenId",
          "type": "uint256"
        }
      ],
      "name": "approve",
      "outputs": [],
      "stateMutability": "nonpayable",
      "type": "function"
    },
    {
      "inputs": [
        {
          "internalType": "address",
          "name": "owner",
          "type": "address"
        }
      ],
      "name": "balanceOf",
      "outputs": [
        {
          "internalType": "uint256",
          "name": "",
          "type": "uint256"
        }
      ],
      "stateMutability": "view",
      "type": "function"
    },
    {
      "inputs": [
        {
          "internalType": "uint256",
          "name": "tokenId",
          "type": "uint256"
        }
      ],
      "name": "getApproved",
      "outputs": [
        {
          "internalType": "address",
          "name": "",
          "type": "address"
        }
      ],
      "stateMutability": "view",
      "type": "function"
    },
    {
      "inputs": [
        {
          "internalType": "string",
          "name": "cid",
          "type": "string"
        }
      ],
      "name": "getId",
      "outputs": [
        {
          "internalType": "uint256",
          "name": "",
          "type": "uint256"
        }
      ],
      "stateMutability": "view",
      "type": "function"
    },
    {
      "inputs": [
        {
          "internalType": "address",
          "name": "owner",
          "type": "address"
        },
        {
          "internalType": "address",
          "name": "operator",
          "type": "address"
        }
      ],
      "name": "isApprovedForAll",
      "outputs": [
        {
          "internalType": "bool",
          "name": "",
          "type": "bool"
        }
      ],
      "stateMutability": "view",
      "type": "function"
    },
    {
      "inputs": [],
      "name": "name",
      "outputs": [
        {
          "internalType": "string",
          "name": "",
          "type": "string"
        }
      ],
      "stateMutability": "view",
      "type": "function"
    },
    {
      "inputs": [],
      "name": "owner",
      "outputs": [
        {
          "internalType": "address",
          "name": "",
          "type": "address"
        }
      ],
      "stateMutability": "view",
      "type": "function"
    },
    {
      "inputs": [
        {
          "internalType": "uint256",
          "name": "tokenId",
          "type": "uint256"
        }
      ],
      "name": "ownerOf",
      "outputs": [
        {
          "internalType": "address",
          "name": "",
          "type": "address"
        }
      ],
      "stateMutability": "view",
      "type": "function"
    },
    {
      "inputs": [],
      "name": "renounceOwnership",
      "outputs": [],
      "stateMutability": "nonpayable",
      "type": "function"
    },
    {
      "inputs": [
        {
          "internalType": "address",
          "name": "from",
          "type": "address"
        },
        {
          "internalType": "address",
          "name": "to",
          "type": "address"
        },
        {
          "internalType": "uint256",
          "name": "tokenId",
          "type": "uint256"
        }
      ],
      "name": "safeTransferFrom",
      "outputs": [],
      "stateMutability": "nonpayable",
      "type": "function"
    },
    {
      "inputs": [
        {
          "internalType": "address",
          "name": "from",
          "type": "address"
        },
        {
          "internalType": "address",
          "name": "to",
          "type": "address"
        },
        {
          "internalType": "uint256",
          "name": "tokenId",
          "type": "uint256"
        },
        {
          "internalType": "bytes",
          "name": "data",
          "type": "bytes"
        }
      ],
      "name": "safeTransferFrom",
      "outputs": [],
      "stateMutability": "nonpayable",
      "type": "function"
    },
    {
      "inputs": [
        {
          "internalType": "address",
          "name": "operator",
          "type": "address"
        },
        {
          "internalType": "bool",
          "name": "approved",
          "type": "bool"
        }
      ],
      "name": "setApprovalForAll",
      "outputs": [],
      "stateMutability": "nonpayable",
      "type": "function"
    },
    {
      "inputs": [
        {
          "internalType": "bytes4",
          "name": "interfaceId",
          "type": "bytes4"
        }
      ],
      "name": "supportsInterface",
      "outputs": [
        {
          "internalType": "bool",
          "name": "",
          "type": "bool"
        }
      ],
      "stateMutability": "view",
      "type": "function"
    },
    {
      "inputs": [],
      "name": "symbol",
      "outputs": [
        {
          "internalType": "string",
          "name": "",
          "type": "string"
        }
      ],
      "stateMutability": "view",
      "type": "function"
    },
    {
      "inputs": [],
      "name": "togglePause",
      "outputs": [],
      "stateMutability": "nonpayable",
      "type": "function"
    },
    {
      "inputs": [
        {
          "internalType": "uint256",
          "name": "tokenId",
          "type": "uint256"
        }
      ],
      "name": "tokenURI",
      "outputs": [
        {
          "internalType": "string",
          "name": "",
          "type": "string"
        }
      ],
      "stateMutability": "view",
      "type": "function"
    },
    {
      "inputs": [
        {
          "internalType": "address",
          "name": "from",
          "type": "address"
        },
        {
          "internalType": "address",
          "name": "to",
          "type": "address"
        },
        {
          "internalType": "uint256",
          "name": "tokenId",
          "type": "uint256"
        }
      ],
      "name": "transferFrom",
      "outputs": [],
      "stateMutability": "nonpayable",
      "type": "function"
    },
    {
      "inputs": [
        {
          "internalType": "address",
          "name": "newOwner",
          "type": "address"
        }
      ],
      "name": "transferOwnership",
      "outputs": [],
      "stateMutability": "nonpayable",
      "type": "function"
    }
  ],
  "bytecode": "0x60806040523480156200001157600080fd5b506040516200473b3803806200473b8339818101604052810190620000379190620002d8565b6040518060400160405280600981526020017f4149512d546f6b656e00000000000000000000000000000000000000000000008152506040518060400160405280600381526020017f41495100000000000000000000000000000000000000000000000000000000008152508160009080519060200190620000bb929190620001e6565b508060019080519060200190620000d4929190620001e6565b505050620000f7620000eb6200011860201b60201c565b6200012060201b60201c565b80600960006101000a81548160ff021916908315150217905550506200036f565b600033905090565b6000600760009054906101000a900473ffffffffffffffffffffffffffffffffffffffff16905081600760006101000a81548173ffffffffffffffffffffffffffffffffffffffff021916908373ffffffffffffffffffffffffffffffffffffffff1602179055508173ffffffffffffffffffffffffffffffffffffffff168173ffffffffffffffffffffffffffffffffffffffff167f8be0079c531659141344cd1fd0a4f28419497f9722a3daafe3b4186f6b6457e060405160405180910390a35050565b828054620001f49062000339565b90600052602060002090601f01602090048101928262000218576000855562000264565b82601f106200023357805160ff191683800117855562000264565b8280016001018555821562000264579182015b828111156200026357825182559160200191906001019062000246565b5b50905062000273919062000277565b5090565b5b808211156200029257600081600090555060010162000278565b5090565b600080fd5b60008115159050919050565b620002b2816200029b565b8114620002be57600080fd5b50565b600081519050620002d281620002a7565b92915050565b600060208284031215620002f157620002f062000296565b5b60006200030184828501620002c1565b91505092915050565b7f4e487b7100000000000000000000000000000000000000000000000000000000600052602260045260246000fd5b600060028204905060018216806200035257607f821691505b602082108114156200036957620003686200030a565b5b50919050565b6143bc806200037f6000396000f3fe608060405234801561001057600080fd5b50600436106101425760003560e01c8063a22cb465116100b8578063c87b56dd1161007c578063c87b56dd14610361578063ca63a95c14610391578063e775f55f146103c1578063e985e9c5146103dd578063ec9667451461040d578063f2fde38b1461043d57610142565b8063a22cb465146102bf578063b0b22c2c146102db578063b88d4fde1461030b578063bee51f3b14610327578063c4ae31681461035757610142565b806342842e0e1161010a57806342842e0e146101fd5780636352211e1461021957806370a0823114610249578063715018a6146102795780638da5cb5b1461028357806395d89b41146102a157610142565b806301ffc9a71461014757806306fdde0314610177578063081812fc14610195578063095ea7b3146101c557806323b872dd146101e1575b600080fd5b610161600480360381019061015c9190612cab565b610459565b60405161016e9190612cf3565b60405180910390f35b61017f61053b565b60405161018c9190612da7565b60405180910390f35b6101af60048036038101906101aa9190612dff565b6105cd565b6040516101bc9190612e6d565b60405180910390f35b6101df60048036038101906101da9190612eb4565b610613565b005b6101fb60048036038101906101f69190612ef4565b61072b565b005b61021760048036038101906102129190612ef4565b61078b565b005b610233600480360381019061022e9190612dff565b6107ab565b6040516102409190612e6d565b60405180910390f35b610263600480360381019061025e9190612f47565b610832565b6040516102709190612f83565b60405180910390f35b6102816108ea565b005b61028b6108fe565b6040516102989190612e6d565b60405180910390f35b6102a9610928565b6040516102b69190612da7565b60405180910390f35b6102d960048036038101906102d49190612fca565b6109ba565b005b6102f560048036038101906102f0919061313f565b6109d0565b6040516103029190612f83565b60405180910390f35b6103256004803603810190610320919061323c565b610e14565b005b610341600480360381019061033c91906132bf565b610e76565b60405161034e9190612f83565b60405180910390f35b61035f610e9e565b005b61037b60048036038101906103769190612dff565b610ed2565b6040516103889190612da7565b60405180910390f35b6103ab60048036038101906103a69190612fca565b610ee4565b6040516103b89190612cf3565b60405180910390f35b6103db60048036038101906103d69190612f47565b61114b565b005b6103f760048036038101906103f29190613308565b611533565b6040516104049190612cf3565b60405180910390f35b61042760048036038101906104229190613410565b6115c7565b6040516104349190612cf3565b60405180910390f35b61045760048036038101906104529190612f47565b6116a4565b005b60007f80ac58cd000000000000000000000000000000000000000000000000000000007bffffffffffffffffffffffffffffffffffffffffffffffffffffffff1916827bffffffffffffffffffffffffffffffffffffffffffffffffffffffff1916148061052457507f5b5e139f000000000000000000000000000000000000000000000000000000007bffffffffffffffffffffffffffffffffffffffffffffffffffffffff1916827bffffffffffffffffffffffffffffffffffffffffffffffffffffffff1916145b80610534575061053382611728565b5b9050919050565b60606000805461054a90613488565b80601f016020809104026020016040519081016040528092919081815260200182805461057690613488565b80156105c35780601f10610598576101008083540402835291602001916105c3565b820191906000526020600020905b8154815290600101906020018083116105a657829003601f168201915b5050505050905090565b60006105d882611792565b6004600083815260200190815260200160002060009054906101000a900473ffffffffffffffffffffffffffffffffffffffff169050919050565b600061061e826107ab565b90508073ffffffffffffffffffffffffffffffffffffffff168373ffffffffffffffffffffffffffffffffffffffff16141561068f576040517f08c379a00000000000000000000000000000000000000000000000000000000081526004016106869061352c565b60405180910390fd5b8073ffffffffffffffffffffffffffffffffffffffff166106ae6117dd565b73ffffffffffffffffffffffffffffffffffffffff1614806106dd57506106dc816106d76117dd565b611533565b5b61071c576040517f08c379a0000000000000000000000000000000000000000000000000000000008152600401610713906135be565b60405180910390fd5b61072683836117e5565b505050565b61073c6107366117dd565b8261189e565b61077b576040517f08c379a000000000000000000000000000000000000000000000000000000000815260040161077290613650565b60405180910390fd5b610786838383611933565b505050565b6107a683838360405180602001604052806000815250610e14565b505050565b6000806107b783611c2d565b9050600073ffffffffffffffffffffffffffffffffffffffff168173ffffffffffffffffffffffffffffffffffffffff161415610829576040517f08c379a0000000000000000000000000000000000000000000000000000000008152600401610820906136bc565b60405180910390fd5b80915050919050565b60008073ffffffffffffffffffffffffffffffffffffffff168273ffffffffffffffffffffffffffffffffffffffff1614156108a3576040517f08c379a000000000000000000000000000000000000000000000000000000000815260040161089a9061374e565b60405180910390fd5b600360008373ffffffffffffffffffffffffffffffffffffffff1673ffffffffffffffffffffffffffffffffffffffff168152602001908152602001600020549050919050565b6108f2611c6a565b6108fc6000611ce8565b565b6000600760009054906101000a900473ffffffffffffffffffffffffffffffffffffffff16905090565b60606001805461093790613488565b80601f016020809104026020016040519081016040528092919081815260200182805461096390613488565b80156109b05780601f10610985576101008083540402835291602001916109b0565b820191906000526020600020905b81548152906001019060200180831161099357829003601f168201915b5050505050905090565b6109cc6109c56117dd565b8383611dae565b5050565b6000600960009054906101000a900460ff1615610a22576040517f08c379a0000000000000000000000000000000000000000000000000000000008152600401610a19906137ba565b60405180910390fd5b600083511415610a67576040517f08c379a0000000000000000000000000000000000000000000000000000000008152600401610a5e90613826565b60405180910390fd5b60001515600a84604051610a7b9190613882565b908152602001604051809103902060009054906101000a900460ff16151514610ad9576040517f08c379a0000000000000000000000000000000000000000000000000000000008152600401610ad0906138e5565b60405180910390fd5b60011515600c60008473ffffffffffffffffffffffffffffffffffffffff1673ffffffffffffffffffffffffffffffffffffffff16815260200190815260200160002060009054906101000a900460ff16151514610b6c576040517f08c379a0000000000000000000000000000000000000000000000000000000008152600401610b6390613951565b60405180910390fd5b600c60003373ffffffffffffffffffffffffffffffffffffffff1673ffffffffffffffffffffffffffffffffffffffff16815260200190815260200160002060009054906101000a900460ff16610e0d576000600d60008473ffffffffffffffffffffffffffffffffffffffff1673ffffffffffffffffffffffffffffffffffffffff168152602001908152602001600020805480602002602001604051908101604052809291908181526020018280548015610c7e57602002820191906000526020600020905b8160009054906101000a900473ffffffffffffffffffffffffffffffffffffffff1673ffffffffffffffffffffffffffffffffffffffff1681526020019060010190808311610c34575b5050505050905060008151811015610e0a573373ffffffffffffffffffffffffffffffffffffffff16600d60008673ffffffffffffffffffffffffffffffffffffffff1673ffffffffffffffffffffffffffffffffffffffff1681526020019081526020016000208281548110610cf857610cf7613971565b5b9060005260206000200160009054906101000a900473ffffffffffffffffffffffffffffffffffffffff1673ffffffffffffffffffffffffffffffffffffffff1614610d79576040517f08c379a0000000000000000000000000000000000000000000000000000000008152600401610d70906139ec565b60405180910390fd5b610d836008611f1b565b6000610d8f6008611f31565b9050610d9b8582611f3f565b610da58187611f5d565b6001600a87604051610db79190613882565b908152602001604051809103902060006101000a81548160ff02191690831515021790555080600b87604051610ded9190613882565b908152602001604051809103902081905550809350505050610e0e565b50505b5b92915050565b610e25610e1f6117dd565b8361189e565b610e64576040517f08c379a0000000000000000000000000000000000000000000000000000000008152600401610e5b90613650565b60405180910390fd5b610e7084848484611fd1565b50505050565b6000600b82604051610e889190613882565b9081526020016040518091039020549050919050565b610ea6611c6a565b600960009054906101000a900460ff1615600960006101000a81548160ff021916908315150217905550565b6060610edd8261202d565b9050919050565b6000610eee611c6a565b610ef783612140565b15610f37576040517f08c379a0000000000000000000000000000000000000000000000000000000008152600401610f2e90613ad0565b60405180910390fd5b600073ffffffffffffffffffffffffffffffffffffffff168373ffffffffffffffffffffffffffffffffffffffff161415610fa7576040517f08c379a0000000000000000000000000000000000000000000000000000000008152600401610f9e90613ad0565b60405180910390fd5b60011515821515141561104c5760001515600c60008573ffffffffffffffffffffffffffffffffffffffff1673ffffffffffffffffffffffffffffffffffffffff16815260200190815260200160002060009054906101000a900460ff16151514611047576040517f08c379a000000000000000000000000000000000000000000000000000000000815260040161103e90613b3c565b60405180910390fd5b6110ee565b6000151582151514156110ed5760011515600c60008573ffffffffffffffffffffffffffffffffffffffff1673ffffffffffffffffffffffffffffffffffffffff16815260200190815260200160002060009054906101000a900460ff161515146110ec576040517f08c379a00000000000000000000000000000000000000000000000000000000081526004016110e390613ba8565b60405180910390fd5b5b5b81600c60008573ffffffffffffffffffffffffffffffffffffffff1673ffffffffffffffffffffffffffffffffffffffff16815260200190815260200160002060006101000a81548160ff02191690831515021790555092915050565b60011515600c60003373ffffffffffffffffffffffffffffffffffffffff1673ffffffffffffffffffffffffffffffffffffffff16815260200190815260200160002060009054906101000a900460ff161515146111de576040517f08c379a00000000000000000000000000000000000000000000000000000000081526004016111d590613c14565b60405180910390fd5b8073ffffffffffffffffffffffffffffffffffffffff163373ffffffffffffffffffffffffffffffffffffffff16141561124d576040517f08c379a000000000000000000000000000000000000000000000000000000000815260040161124490613c80565b60405180910390fd5b60005b600d60003373ffffffffffffffffffffffffffffffffffffffff1673ffffffffffffffffffffffffffffffffffffffff16815260200190815260200160002080549050811015611397578173ffffffffffffffffffffffffffffffffffffffff16600d60003373ffffffffffffffffffffffffffffffffffffffff1673ffffffffffffffffffffffffffffffffffffffff168152602001908152602001600020828154811061130257611301613971565b5b9060005260206000200160009054906101000a900473ffffffffffffffffffffffffffffffffffffffff1673ffffffffffffffffffffffffffffffffffffffff161415611384576040517f08c379a000000000000000000000000000000000000000000000000000000000815260040161137b90613cec565b60405180910390fd5b808061138f90613a3b565b915050611250565b506114196040518060400160405280600381526020017f6c656e0000000000000000000000000000000000000000000000000000000000815250600d60003373ffffffffffffffffffffffffffffffffffffffff1673ffffffffffffffffffffffffffffffffffffffff16815260200190815260200160002080549050612163565b6114388173ffffffffffffffffffffffffffffffffffffffff16612140565b1580156114725750600073ffffffffffffffffffffffffffffffffffffffff168173ffffffffffffffffffffffffffffffffffffffff1614155b801561148a575060011515611486826121ff565b1515145b1561153057600d60003373ffffffffffffffffffffffffffffffffffffffff1673ffffffffffffffffffffffffffffffffffffffff168152602001908152602001600020819080600181540180825580915050600190039060005260206000200160009091909190916101000a81548173ffffffffffffffffffffffffffffffffffffffff021916908373ffffffffffffffffffffffffffffffffffffffff1602179055505b50565b6000600560008473ffffffffffffffffffffffffffffffffffffffff1673ffffffffffffffffffffffffffffffffffffffff16815260200190815260200160002060008373ffffffffffffffffffffffffffffffffffffffff1673ffffffffffffffffffffffffffffffffffffffff16815260200190815260200160002060009054906101000a900460ff16905092915050565b600060011515600c60003373ffffffffffffffffffffffffffffffffffffffff1673ffffffffffffffffffffffffffffffffffffffff16815260200190815260200160002060009054906101000a900460ff1615151461165c576040517f08c379a000000000000000000000000000000000000000000000000000000000815260040161165390613c14565b60405180910390fd5b60005b825181101561169e5761168b83828151811061167e5761167d613971565b5b602002602001015161114b565b808061169690613a3b565b91505061165f565b50919050565b6116ac611c6a565b600073ffffffffffffffffffffffffffffffffffffffff168173ffffffffffffffffffffffffffffffffffffffff16141561171c576040517f08c379a000000000000000000000000000000000000000000000000000000000815260040161171390613d7e565b60405180910390fd5b61172581611ce8565b50565b60007f01ffc9a7000000000000000000000000000000000000000000000000000000007bffffffffffffffffffffffffffffffffffffffffffffffffffffffff1916827bffffffffffffffffffffffffffffffffffffffffffffffffffffffff1916149050919050565b61179b8161234c565b6117da576040517f08c379a00000000000000000000000000000000000000000000000000000000081526004016117d1906136bc565b60405180910390fd5b50565b600033905090565b816004600083815260200190815260200160002060006101000a81548173ffffffffffffffffffffffffffffffffffffffff021916908373ffffffffffffffffffffffffffffffffffffffff160217905550808273ffffffffffffffffffffffffffffffffffffffff16611858836107ab565b73ffffffffffffffffffffffffffffffffffffffff167f8c5be1e5ebec7d5bd14f71427d1e84f3dd0314c0f7b2291e5b200ac8c7c3b92560405160405180910390a45050565b6000806118aa836107ab565b90508073ffffffffffffffffffffffffffffffffffffffff168473ffffffffffffffffffffffffffffffffffffffff1614806118ec57506118eb8185611533565b5b8061192a57508373ffffffffffffffffffffffffffffffffffffffff16611912846105cd565b73ffffffffffffffffffffffffffffffffffffffff16145b91505092915050565b8273ffffffffffffffffffffffffffffffffffffffff16611953826107ab565b73ffffffffffffffffffffffffffffffffffffffff16146119a9576040517f08c379a00000000000000000000000000000000000000000000000000000000081526004016119a090613e10565b60405180910390fd5b600073ffffffffffffffffffffffffffffffffffffffff168273ffffffffffffffffffffffffffffffffffffffff161415611a19576040517f08c379a0000000000000000000000000000000000000000000000000000000008152600401611a1090613ea2565b60405180910390fd5b611a26838383600161238d565b8273ffffffffffffffffffffffffffffffffffffffff16611a46826107ab565b73ffffffffffffffffffffffffffffffffffffffff1614611a9c576040517f08c379a0000000000000000000000000000000000000000000000000000000008152600401611a9390613e10565b60405180910390fd5b6004600082815260200190815260200160002060006101000a81549073ffffffffffffffffffffffffffffffffffffffff02191690556001600360008573ffffffffffffffffffffffffffffffffffffffff1673ffffffffffffffffffffffffffffffffffffffff168152602001908152602001600020600082825403925050819055506001600360008473ffffffffffffffffffffffffffffffffffffffff1673ffffffffffffffffffffffffffffffffffffffff16815260200190815260200160002060008282540192505081905550816002600083815260200190815260200160002060006101000a81548173ffffffffffffffffffffffffffffffffffffffff021916908373ffffffffffffffffffffffffffffffffffffffff160217905550808273ffffffffffffffffffffffffffffffffffffffff168473ffffffffffffffffffffffffffffffffffffffff167fddf252ad1be2c89b69c2b068fc378daa952ba7f163c4a11628f55a4df523b3ef60405160405180910390a4611c2883838360016124b3565b505050565b60006002600083815260200190815260200160002060009054906101000a900473ffffffffffffffffffffffffffffffffffffffff169050919050565b611c726117dd565b73ffffffffffffffffffffffffffffffffffffffff16611c906108fe565b73ffffffffffffffffffffffffffffffffffffffff1614611ce6576040517f08c379a0000000000000000000000000000000000000000000000000000000008152600401611cdd90613f0e565b60405180910390fd5b565b6000600760009054906101000a900473ffffffffffffffffffffffffffffffffffffffff16905081600760006101000a81548173ffffffffffffffffffffffffffffffffffffffff021916908373ffffffffffffffffffffffffffffffffffffffff1602179055508173ffffffffffffffffffffffffffffffffffffffff168173ffffffffffffffffffffffffffffffffffffffff167f8be0079c531659141344cd1fd0a4f28419497f9722a3daafe3b4186f6b6457e060405160405180910390a35050565b8173ffffffffffffffffffffffffffffffffffffffff168373ffffffffffffffffffffffffffffffffffffffff161415611e1d576040517f08c379a0000000000000000000000000000000000000000000000000000000008152600401611e1490613f7a565b60405180910390fd5b80600560008573ffffffffffffffffffffffffffffffffffffffff1673ffffffffffffffffffffffffffffffffffffffff16815260200190815260200160002060008473ffffffffffffffffffffffffffffffffffffffff1673ffffffffffffffffffffffffffffffffffffffff16815260200190815260200160002060006101000a81548160ff0219169083151502179055508173ffffffffffffffffffffffffffffffffffffffff168373ffffffffffffffffffffffffffffffffffffffff167f17307eab39ab6107e8899845ad3d59bd9653f200f220920489ca2b5937696c3183604051611f0e9190612cf3565b60405180910390a3505050565b6001816000016000828254019250508190555050565b600081600001549050919050565b611f598282604051806020016040528060008152506124b9565b5050565b611f668261234c565b611fa5576040517f08c379a0000000000000000000000000000000000000000000000000000000008152600401611f9c9061400c565b60405180910390fd5b80600660008481526020019081526020016000209080519060200190611fcc929190612b9c565b505050565b611fdc848484611933565b611fe884848484612514565b612027576040517f08c379a000000000000000000000000000000000000000000000000000000000815260040161201e9061409e565b60405180910390fd5b50505050565b606061203882611792565b600060066000848152602001908152602001600020805461205890613488565b80601f016020809104026020016040519081016040528092919081815260200182805461208490613488565b80156120d15780601f106120a6576101008083540402835291602001916120d1565b820191906000526020600020905b8154815290600101906020018083116120b457829003601f168201915b5050505050905060006120e26126ab565b90506000815114156120f857819250505061213b565b60008251111561212d5780826040516020016121159291906140be565b6040516020818303038152906040529250505061213b565b612136846126c2565b925050505b919050565b6000808273ffffffffffffffffffffffffffffffffffffffff163b119050919050565b6121fb82826040516024016121799291906140e2565b6040516020818303038152906040527fb60e72cc000000000000000000000000000000000000000000000000000000007bffffffffffffffffffffffffffffffffffffffffffffffffffffffff19166020820180517bffffffffffffffffffffffffffffffffffffffffffffffffffffffff838183161783525050505061272a565b5050565b600080600d60003373ffffffffffffffffffffffffffffffffffffffff1673ffffffffffffffffffffffffffffffffffffffff1681526020019081526020016000208054806020026020016040519081016040528092919081815260200182805480156122c157602002820191906000526020600020905b8160009054906101000a900473ffffffffffffffffffffffffffffffffffffffff1673ffffffffffffffffffffffffffffffffffffffff1681526020019060010190808311612277575b5050505050905060005b8151811015612340578373ffffffffffffffffffffffffffffffffffffffff168282815181106122fe576122fd613971565b5b602002602001015173ffffffffffffffffffffffffffffffffffffffff16141561232d57600092505050612347565b808061233890613a3b565b9150506122cb565b5060019150505b919050565b60008073ffffffffffffffffffffffffffffffffffffffff1661236e83611c2d565b73ffffffffffffffffffffffffffffffffffffffff1614159050919050565b60018111156124ad57600073ffffffffffffffffffffffffffffffffffffffff168473ffffffffffffffffffffffffffffffffffffffff16146124215780600360008673ffffffffffffffffffffffffffffffffffffffff1673ffffffffffffffffffffffffffffffffffffffff16815260200190815260200160002060008282546124199190614112565b925050819055505b600073ffffffffffffffffffffffffffffffffffffffff168373ffffffffffffffffffffffffffffffffffffffff16146124ac5780600360008573ffffffffffffffffffffffffffffffffffffffff1673ffffffffffffffffffffffffffffffffffffffff16815260200190815260200160002060008282546124a49190614146565b925050819055505b5b50505050565b50505050565b6124c38383612753565b6124d06000848484612514565b61250f576040517f08c379a00000000000000000000000000000000000000000000000000000000081526004016125069061409e565b60405180910390fd5b505050565b60006125358473ffffffffffffffffffffffffffffffffffffffff16612140565b1561269e578373ffffffffffffffffffffffffffffffffffffffff1663150b7a0261255e6117dd565b8786866040518563ffffffff1660e01b815260040161258094939291906141f1565b602060405180830381600087803b15801561259a57600080fd5b505af19250505080156125cb57506040513d601f19601f820116820180604052508101906125c89190614252565b60015b61264e573d80600081146125fb576040519150601f19603f3d011682016040523d82523d6000602084013e612600565b606091505b50600081511415612646576040517f08c379a000000000000000000000000000000000000000000000000000000000815260040161263d9061409e565b60405180910390fd5b805181602001fd5b63150b7a0260e01b7bffffffffffffffffffffffffffffffffffffffffffffffffffffffff1916817bffffffffffffffffffffffffffffffffffffffffffffffffffffffff1916149150506126a3565b600190505b949350505050565b606060405180602001604052806000815250905090565b60606126cd82611792565b60006126d76126ab565b905060008151116126f75760405180602001604052806000815250612722565b8061270184612971565b6040516020016127129291906140be565b6040516020818303038152906040525b915050919050565b60008151905060006a636f6e736f6c652e6c6f679050602083016000808483855afa5050505050565b600073ffffffffffffffffffffffffffffffffffffffff168273ffffffffffffffffffffffffffffffffffffffff1614156127c3576040517f08c379a00000000000000000000000000000000000000000000000000000000081526004016127ba906142cb565b60405180910390fd5b6127cc8161234c565b1561280c576040517f08c379a000000000000000000000000000000000000000000000000000000000815260040161280390614337565b60405180910390fd5b61281a60008383600161238d565b6128238161234c565b15612863576040517f08c379a000000000000000000000000000000000000000000000000000000000815260040161285a90614337565b60405180910390fd5b6001600360008473ffffffffffffffffffffffffffffffffffffffff1673ffffffffffffffffffffffffffffffffffffffff16815260200190815260200160002060008282540192505081905550816002600083815260200190815260200160002060006101000a81548173ffffffffffffffffffffffffffffffffffffffff021916908373ffffffffffffffffffffffffffffffffffffffff160217905550808273ffffffffffffffffffffffffffffffffffffffff16600073ffffffffffffffffffffffffffffffffffffffff167fddf252ad1be2c89b69c2b068fc378daa952ba7f163c4a11628f55a4df523b3ef60405160405180910390a461296d6000838360016124b3565b5050565b60606000600161298084612a49565b01905060008167ffffffffffffffff81111561299f5761299e613014565b5b6040519080825280601f01601f1916602001820160405280156129d15781602001600182028036833780820191505090505b509050600082602001820190505b600115612a3e578080600190039150507f3031323334353637383961626364656600000000000000000000000000000000600a86061a8153600a8581612a2857612a27614357565b5b0494506000851415612a3957612a3e565b6129df565b819350505050919050565b600080600090507a184f03e93ff9f4daa797ed6e38ed64bf6a1f0100000000000000008310612aa7577a184f03e93ff9f4daa797ed6e38ed64bf6a1f0100000000000000008381612a9d57612a9c614357565b5b0492506040810190505b6d04ee2d6d415b85acef81000000008310612ae4576d04ee2d6d415b85acef81000000008381612ada57612ad9614357565b5b0492506020810190505b662386f26fc100008310612b1357662386f26fc100008381612b0957612b08614357565b5b0492506010810190505b6305f5e1008310612b3c576305f5e1008381612b3257612b31614357565b5b0492506008810190505b6127108310612b61576127108381612b5757612b56614357565b5b0492506004810190505b60648310612b845760648381612b7a57612b79614357565b5b0492506002810190505b600a8310612b93576001810190505b80915050919050565b828054612ba890613488565b90600052602060002090601f016020900481019282612bca5760008555612c11565b82601f10612be357805160ff1916838001178555612c11565b82800160010185558215612c11579182015b82811115612c10578251825591602001919060010190612bf5565b5b509050612c1e9190612c22565b5090565b5b80821115612c3b576000816000905550600101612c23565b5090565b6000604051905090565b600080fd5b600080fd5b60007fffffffff0000000000000000000000000000000000000000000000000000000082169050919050565b612c8881612c53565b8114612c9357600080fd5b50565b600081359050612ca581612c7f565b92915050565b600060208284031215612cc157612cc0612c49565b5b6000612ccf84828501612c96565b91505092915050565b60008115159050919050565b612ced81612cd8565b82525050565b6000602082019050612d086000830184612ce4565b92915050565b600081519050919050565b600082825260208201905092915050565b60005b83811015612d48578082015181840152602081019050612d2d565b83811115612d57576000848401525b50505050565b6000601f19601f8301169050919050565b6000612d7982612d0e565b612d838185612d19565b9350612d93818560208601612d2a565b612d9c81612d5d565b840191505092915050565b60006020820190508181036000830152612dc18184612d6e565b905092915050565b6000819050919050565b612ddc81612dc9565b8114612de757600080fd5b50565b600081359050612df981612dd3565b92915050565b600060208284031215612e1557612e14612c49565b5b6000612e2384828501612dea565b91505092915050565b600073ffffffffffffffffffffffffffffffffffffffff82169050919050565b6000612e5782612e2c565b9050919050565b612e6781612e4c565b82525050565b6000602082019050612e826000830184612e5e565b92915050565b612e9181612e4c565b8114612e9c57600080fd5b50565b600081359050612eae81612e88565b92915050565b60008060408385031215612ecb57612eca612c49565b5b6000612ed985828601612e9f565b9250506020612eea85828601612dea565b9150509250929050565b600080600060608486031215612f0d57612f0c612c49565b5b6000612f1b86828701612e9f565b9350506020612f2c86828701612e9f565b9250506040612f3d86828701612dea565b9150509250925092565b600060208284031215612f5d57612f5c612c49565b5b6000612f6b84828501612e9f565b91505092915050565b612f7d81612dc9565b82525050565b6000602082019050612f986000830184612f74565b92915050565b612fa781612cd8565b8114612fb257600080fd5b50565b600081359050612fc481612f9e565b92915050565b60008060408385031215612fe157612fe0612c49565b5b6000612fef85828601612e9f565b925050602061300085828601612fb5565b9150509250929050565b600080fd5b600080fd5b7f4e487b7100000000000000000000000000000000000000000000000000000000600052604160045260246000fd5b61304c82612d5d565b810181811067ffffffffffffffff8211171561306b5761306a613014565b5b80604052505050565b600061307e612c3f565b905061308a8282613043565b919050565b600067ffffffffffffffff8211156130aa576130a9613014565b5b6130b382612d5d565b9050602081019050919050565b82818337600083830152505050565b60006130e26130dd8461308f565b613074565b9050828152602081018484840111156130fe576130fd61300f565b5b6131098482856130c0565b509392505050565b600082601f8301126131265761312561300a565b5b81356131368482602086016130cf565b91505092915050565b6000806040838503121561315657613155612c49565b5b600083013567ffffffffffffffff81111561317457613173612c4e565b5b61318085828601613111565b925050602061319185828601612e9f565b9150509250929050565b600067ffffffffffffffff8211156131b6576131b5613014565b5b6131bf82612d5d565b9050602081019050919050565b60006131df6131da8461319b565b613074565b9050828152602081018484840111156131fb576131fa61300f565b5b6132068482856130c0565b509392505050565b600082601f8301126132235761322261300a565b5b81356132338482602086016131cc565b91505092915050565b6000806000806080858703121561325657613255612c49565b5b600061326487828801612e9f565b945050602061327587828801612e9f565b935050604061328687828801612dea565b925050606085013567ffffffffffffffff8111156132a7576132a6612c4e565b5b6132b38782880161320e565b91505092959194509250565b6000602082840312156132d5576132d4612c49565b5b600082013567ffffffffffffffff8111156132f3576132f2612c4e565b5b6132ff84828501613111565b91505092915050565b6000806040838503121561331f5761331e612c49565b5b600061332d85828601612e9f565b925050602061333e85828601612e9f565b9150509250929050565b600067ffffffffffffffff82111561336357613362613014565b5b602082029050602081019050919050565b600080fd5b600061338c61338784613348565b613074565b905080838252602082019050602084028301858111156133af576133ae613374565b5b835b818110156133d857806133c48882612e9f565b8452602084019350506020810190506133b1565b5050509392505050565b600082601f8301126133f7576133f661300a565b5b8135613407848260208601613379565b91505092915050565b60006020828403121561342657613425612c49565b5b600082013567ffffffffffffffff81111561344457613443612c4e565b5b613450848285016133e2565b91505092915050565b7f4e487b7100000000000000000000000000000000000000000000000000000000600052602260045260246000fd5b600060028204905060018216806134a057607f821691505b602082108114156134b4576134b3613459565b5b50919050565b7f4552433732313a20617070726f76616c20746f2063757272656e74206f776e6560008201527f7200000000000000000000000000000000000000000000000000000000000000602082015250565b6000613516602183612d19565b9150613521826134ba565b604082019050919050565b6000602082019050818103600083015261354581613509565b9050919050565b7f4552433732313a20617070726f76652063616c6c6572206973206e6f7420746f60008201527f6b656e206f776e6572206f7220617070726f76656420666f7220616c6c000000602082015250565b60006135a8603d83612d19565b91506135b38261354c565b604082019050919050565b600060208201905081810360008301526135d78161359b565b9050919050565b7f4552433732313a2063616c6c6572206973206e6f7420746f6b656e206f776e6560008201527f72206f7220617070726f76656400000000000000000000000000000000000000602082015250565b600061363a602d83612d19565b9150613645826135de565b604082019050919050565b600060208201905081810360008301526136698161362d565b9050919050565b7f4552433732313a20696e76616c696420746f6b656e2049440000000000000000600082015250565b60006136a6601883612d19565b91506136b182613670565b602082019050919050565b600060208201905081810360008301526136d581613699565b9050919050565b7f4552433732313a2061646472657373207a65726f206973206e6f74206120766160008201527f6c6964206f776e65720000000000000000000000000000000000000000000000602082015250565b6000613738602983612d19565b9150613743826136dc565b604082019050919050565b600060208201905081810360008301526137678161372b565b9050919050565b7f436f6e7472616374206973205061757365640000000000000000000000000000600082015250565b60006137a4601283612d19565b91506137af8261376e565b602082019050919050565b600060208201905081810360008301526137d381613797565b9050919050565b7f55524c2063616e6e6f7420626520656d70747900000000000000000000000000600082015250565b6000613810601383612d19565b915061381b826137da565b602082019050919050565b6000602082019050818103600083015261383f81613803565b9050919050565b600081905092915050565b600061385c82612d0e565b6138668185613846565b9350613876818560208601612d2a565b80840191505092915050565b600061388e8284613851565b915081905092915050565b7f546f6b656e20616c726561647920657869737473000000000000000000000000600082015250565b60006138cf601483612d19565b91506138da82613899565b602082019050919050565b600060208201905081810360008301526138fe816138c2565b9050919050565b7f496e76616c696420636f6d70616e792061646d696e2061646472657373000000600082015250565b600061393b601d83612d19565b915061394682613905565b602082019050919050565b6000602082019050818103600083015261396a8161392e565b9050919050565b7f4e487b7100000000000000000000000000000000000000000000000000000000600052603260045260246000fd5b7f496e76616c69642041756469746f720000000000000000000000000000000000600082015250565b60006139d6600f83612d19565b91506139e1826139a0565b602082019050919050565b60006020820190508181036000830152613a05816139c9565b9050919050565b7f4e487b7100000000000000000000000000000000000000000000000000000000600052601160045260246000fd5b6000613a4682612dc9565b91507fffffffffffffffffffffffffffffffffffffffffffffffffffffffffffffffff821415613a7957613a78613a0c565b5b600182019050919050565b7f496e76616c696420416464726573730000000000000000000000000000000000600082015250565b6000613aba600f83612d19565b9150613ac582613a84565b602082019050919050565b60006020820190508181036000830152613ae981613aad565b9050919050565b7f41646d696e20616c726561647920657869737473000000000000000000000000600082015250565b6000613b26601483612d19565b9150613b3182613af0565b602082019050919050565b60006020820190508181036000830152613b5581613b19565b9050919050565b7f41646d696e20646f65736e6f7420657869737400000000000000000000000000600082015250565b6000613b92601383612d19565b9150613b9d82613b5c565b602082019050919050565b60006020820190508181036000830152613bc181613b85565b9050919050565b7f496e76616c696420436f6d70616e792041646d696e0000000000000000000000600082015250565b6000613bfe601583612d19565b9150613c0982613bc8565b602082019050919050565b60006020820190508181036000830152613c2d81613bf1565b9050919050565b7f41646d696e2063616e6e6f74206265207468652061756469746f720000000000600082015250565b6000613c6a601b83612d19565b9150613c7582613c34565b602082019050919050565b60006020820190508181036000830152613c9981613c5d565b9050919050565b7f41756469746f7220616c72656164792065786973747300000000000000000000600082015250565b6000613cd6601683612d19565b9150613ce182613ca0565b602082019050919050565b60006020820190508181036000830152613d0581613cc9565b9050919050565b7f4f776e61626c653a206e6577206f776e657220697320746865207a65726f206160008201527f6464726573730000000000000000000000000000000000000000000000000000602082015250565b6000613d68602683612d19565b9150613d7382613d0c565b604082019050919050565b60006020820190508181036000830152613d9781613d5b565b9050919050565b7f4552433732313a207472616e736665722066726f6d20696e636f72726563742060008201527f6f776e6572000000000000000000000000000000000000000000000000000000602082015250565b6000613dfa602583612d19565b9150613e0582613d9e565b604082019050919050565b60006020820190508181036000830152613e2981613ded565b9050919050565b7f4552433732313a207472616e7366657220746f20746865207a65726f2061646460008201527f7265737300000000000000000000000000000000000000000000000000000000602082015250565b6000613e8c602483612d19565b9150613e9782613e30565b604082019050919050565b60006020820190508181036000830152613ebb81613e7f565b9050919050565b7f4f776e61626c653a2063616c6c6572206973206e6f7420746865206f776e6572600082015250565b6000613ef8602083612d19565b9150613f0382613ec2565b602082019050919050565b60006020820190508181036000830152613f2781613eeb565b9050919050565b7f4552433732313a20617070726f766520746f2063616c6c657200000000000000600082015250565b6000613f64601983612d19565b9150613f6f82613f2e565b602082019050919050565b60006020820190508181036000830152613f9381613f57565b9050919050565b7f45524337323155524953746f726167653a2055524920736574206f66206e6f6e60008201527f6578697374656e7420746f6b656e000000000000000000000000000000000000602082015250565b6000613ff6602e83612d19565b915061400182613f9a565b604082019050919050565b6000602082019050818103600083015261402581613fe9565b9050919050565b7f4552433732313a207472616e7366657220746f206e6f6e20455243373231526560008201527f63656976657220696d706c656d656e7465720000000000000000000000000000602082015250565b6000614088603283612d19565b91506140938261402c565b604082019050919050565b600060208201905081810360008301526140b78161407b565b9050919050565b60006140ca8285613851565b91506140d68284613851565b91508190509392505050565b600060408201905081810360008301526140fc8185612d6e565b905061410b6020830184612f74565b9392505050565b600061411d82612dc9565b915061412883612dc9565b92508282101561413b5761413a613a0c565b5b828203905092915050565b600061415182612dc9565b915061415c83612dc9565b9250827fffffffffffffffffffffffffffffffffffffffffffffffffffffffffffffffff0382111561419157614190613a0c565b5b828201905092915050565b600081519050919050565b600082825260208201905092915050565b60006141c38261419c565b6141cd81856141a7565b93506141dd818560208601612d2a565b6141e681612d5d565b840191505092915050565b60006080820190506142066000830187612e5e565b6142136020830186612e5e565b6142206040830185612f74565b818103606083015261423281846141b8565b905095945050505050565b60008151905061424c81612c7f565b92915050565b60006020828403121561426857614267612c49565b5b60006142768482850161423d565b91505092915050565b7f4552433732313a206d696e7420746f20746865207a65726f2061646472657373600082015250565b60006142b5602083612d19565b91506142c08261427f565b602082019050919050565b600060208201905081810360008301526142e4816142a8565b9050919050565b7f4552433732313a20746f6b656e20616c7265616479206d696e74656400000000600082015250565b6000614321601c83612d19565b915061432c826142eb565b602082019050919050565b6000602082019050818103600083015261435081614314565b9050919050565b7f4e487b7100000000000000000000000000000000000000000000000000000000600052601260045260246000fdfea26469706673582212201f18b3878ca1cbf17aced547b4bcade8710c4530ae8ac2b3c79ea99c06d3e05964736f6c63430008090033",
  "linkReferences": {},
  "deployedLinkReferences": {}
}