{
  "_format": "hh-sol-artifact-1",
  "contractName": "WellsDiv",
  "sourceName": "contracts/WellsDiv.sol",
  "abi": [
    {
      "inputs": [],
      "stateMutability": "nonpayable",
      "type": "constructor"
    },
    {
      "anonymous": false,
      "inputs": [
        {
          "indexed": true,
          "internalType": "address",
          "name": "account",
          "type": "address"
        },
        {
          "indexed": true,
          "internalType": "address",
          "name": "operator",
          "type": "address"
        },
        {
          "indexed": false,
          "internalType": "bool",
          "name": "approved",
          "type": "bool"
        }
      ],
      "name": "ApprovalForAll",
      "type": "event"
    },
    {
      "anonymous": false,
      "inputs": [
        {
          "indexed": true,
          "internalType": "address",
          "name": "previousOwner",
          "type": "address"
        },
        {
          "indexed": true,
          "internalType": "address",
          "name": "newOwner",
          "type": "address"
        }
      ],
      "name": "OwnershipTransferred",
      "type": "event"
    },
    {
      "anonymous": false,
      "inputs": [
        {
          "indexed": false,
          "internalType": "address",
          "name": "account",
          "type": "address"
        }
      ],
      "name": "Paused",
      "type": "event"
    },
    {
      "anonymous": false,
      "inputs": [
        {
          "indexed": true,
          "internalType": "address",
          "name": "operator",
          "type": "address"
        },
        {
          "indexed": true,
          "internalType": "address",
          "name": "from",
          "type": "address"
        },
        {
          "indexed": true,
          "internalType": "address",
          "name": "to",
          "type": "address"
        },
        {
          "indexed": false,
          "internalType": "uint256[]",
          "name": "ids",
          "type": "uint256[]"
        },
        {
          "indexed": false,
          "internalType": "uint256[]",
          "name": "values",
          "type": "uint256[]"
        }
      ],
      "name": "TransferBatch",
      "type": "event"
    },
    {
      "anonymous": false,
      "inputs": [
        {
          "indexed": true,
          "internalType": "address",
          "name": "operator",
          "type": "address"
        },
        {
          "indexed": true,
          "internalType": "address",
          "name": "from",
          "type": "address"
        },
        {
          "indexed": true,
          "internalType": "address",
          "name": "to",
          "type": "address"
        },
        {
          "indexed": false,
          "internalType": "uint256",
          "name": "id",
          "type": "uint256"
        },
        {
          "indexed": false,
          "internalType": "uint256",
          "name": "value",
          "type": "uint256"
        }
      ],
      "name": "TransferSingle",
      "type": "event"
    },
    {
      "anonymous": false,
      "inputs": [
        {
          "indexed": false,
          "internalType": "string",
          "name": "value",
          "type": "string"
        },
        {
          "indexed": true,
          "internalType": "uint256",
          "name": "id",
          "type": "uint256"
        }
      ],
      "name": "URI",
      "type": "event"
    },
    {
      "anonymous": false,
      "inputs": [
        {
          "indexed": false,
          "internalType": "address",
          "name": "account",
          "type": "address"
        }
      ],
      "name": "Unpaused",
      "type": "event"
    },
    {
      "inputs": [],
      "name": "Well1",
      "outputs": [
        {
          "internalType": "uint256",
          "name": "",
          "type": "uint256"
        }
      ],
      "stateMutability": "view",
      "type": "function"
    },
    {
      "inputs": [],
      "name": "Well2",
      "outputs": [
        {
          "internalType": "uint256",
          "name": "",
          "type": "uint256"
        }
      ],
      "stateMutability": "view",
      "type": "function"
    },
    {
      "inputs": [
        {
          "internalType": "address",
          "name": "account",
          "type": "address"
        },
        {
          "internalType": "uint256",
          "name": "id",
          "type": "uint256"
        }
      ],
      "name": "balanceOf",
      "outputs": [
        {
          "internalType": "uint256",
          "name": "",
          "type": "uint256"
        }
      ],
      "stateMutability": "view",
      "type": "function"
    },
    {
      "inputs": [
        {
          "internalType": "address[]",
          "name": "accounts",
          "type": "address[]"
        },
        {
          "internalType": "uint256[]",
          "name": "ids",
          "type": "uint256[]"
        }
      ],
      "name": "balanceOfBatch",
      "outputs": [
        {
          "internalType": "uint256[]",
          "name": "",
          "type": "uint256[]"
        }
      ],
      "stateMutability": "view",
      "type": "function"
    },
    {
      "inputs": [
        {
          "internalType": "address",
          "name": "account",
          "type": "address"
        },
        {
          "internalType": "address",
          "name": "operator",
          "type": "address"
        }
      ],
      "name": "isApprovedForAll",
      "outputs": [
        {
          "internalType": "bool",
          "name": "",
          "type": "bool"
        }
      ],
      "stateMutability": "view",
      "type": "function"
    },
    {
      "inputs": [
        {
          "internalType": "address",
          "name": "account",
          "type": "address"
        },
        {
          "internalType": "uint256",
          "name": "id",
          "type": "uint256"
        },
        {
          "internalType": "uint256",
          "name": "amount",
          "type": "uint256"
        },
        {
          "internalType": "bytes",
          "name": "data",
          "type": "bytes"
        }
      ],
      "name": "mint",
      "outputs": [],
      "stateMutability": "nonpayable",
      "type": "function"
    },
    {
      "inputs": [
        {
          "internalType": "address",
          "name": "to",
          "type": "address"
        },
        {
          "internalType": "uint256[]",
          "name": "ids",
          "type": "uint256[]"
        },
        {
          "internalType": "uint256[]",
          "name": "amounts",
          "type": "uint256[]"
        },
        {
          "internalType": "bytes",
          "name": "data",
          "type": "bytes"
        }
      ],
      "name": "mintBatch",
      "outputs": [],
      "stateMutability": "nonpayable",
      "type": "function"
    },
    {
      "inputs": [],
      "name": "owner",
      "outputs": [
        {
          "internalType": "address",
          "name": "",
          "type": "address"
        }
      ],
      "stateMutability": "view",
      "type": "function"
    },
    {
      "inputs": [],
      "name": "pause",
      "outputs": [],
      "stateMutability": "nonpayable",
      "type": "function"
    },
    {
      "inputs": [],
      "name": "paused",
      "outputs": [
        {
          "internalType": "bool",
          "name": "",
          "type": "bool"
        }
      ],
      "stateMutability": "view",
      "type": "function"
    },
    {
      "inputs": [],
      "name": "renounceOwnership",
      "outputs": [],
      "stateMutability": "nonpayable",
      "type": "function"
    },
    {
      "inputs": [
        {
          "internalType": "address",
          "name": "from",
          "type": "address"
        },
        {
          "internalType": "address",
          "name": "to",
          "type": "address"
        },
        {
          "internalType": "uint256[]",
          "name": "ids",
          "type": "uint256[]"
        },
        {
          "internalType": "uint256[]",
          "name": "amounts",
          "type": "uint256[]"
        },
        {
          "internalType": "bytes",
          "name": "data",
          "type": "bytes"
        }
      ],
      "name": "safeBatchTransferFrom",
      "outputs": [],
      "stateMutability": "nonpayable",
      "type": "function"
    },
    {
      "inputs": [
        {
          "internalType": "address",
          "name": "from",
          "type": "address"
        },
        {
          "internalType": "address",
          "name": "to",
          "type": "address"
        },
        {
          "internalType": "uint256",
          "name": "id",
          "type": "uint256"
        },
        {
          "internalType": "uint256",
          "name": "amount",
          "type": "uint256"
        },
        {
          "internalType": "bytes",
          "name": "data",
          "type": "bytes"
        }
      ],
      "name": "safeTransferFrom",
      "outputs": [],
      "stateMutability": "nonpayable",
      "type": "function"
    },
    {
      "inputs": [
        {
          "internalType": "address",
          "name": "operator",
          "type": "address"
        },
        {
          "internalType": "bool",
          "name": "approved",
          "type": "bool"
        }
      ],
      "name": "setApprovalForAll",
      "outputs": [],
      "stateMutability": "nonpayable",
      "type": "function"
    },
    {
      "inputs": [
        {
          "internalType": "string",
          "name": "newuri",
          "type": "string"
        }
      ],
      "name": "setURI",
      "outputs": [],
      "stateMutability": "nonpayable",
      "type": "function"
    },
    {
      "inputs": [
        {
          "internalType": "bytes4",
          "name": "interfaceId",
          "type": "bytes4"
        }
      ],
      "name": "supportsInterface",
      "outputs": [
        {
          "internalType": "bool",
          "name": "",
          "type": "bool"
        }
      ],
      "stateMutability": "view",
      "type": "function"
    },
    {
      "inputs": [
        {
          "internalType": "address",
          "name": "newOwner",
          "type": "address"
        }
      ],
      "name": "transferOwnership",
      "outputs": [],
      "stateMutability": "nonpayable",
      "type": "function"
    },
    {
      "inputs": [],
      "name": "unpause",
      "outputs": [],
      "stateMutability": "nonpayable",
      "type": "function"
    },
    {
      "inputs": [
        {
          "internalType": "uint256",
          "name": "",
          "type": "uint256"
        }
      ],
      "name": "uri",
      "outputs": [
        {
          "internalType": "string",
          "name": "",
          "type": "string"
        }
      ],
      "stateMutability": "view",
      "type": "function"
    }
  ],
  "bytecode": "0x60806040523480156200001157600080fd5b50604051806060016040528060228152602001620041e0602291396200003d81620000fd60201b60201c565b506200005e620000526200011960201b60201c565b6200012160201b60201c565b6000600360146101000a81548160ff02191690831515021790555060016004600060018152602001908152602001600020819055506001600460006002815260200190815260200160002081905550620000d2306001600a60405180602001604052806000815250620001e760201b60201c565b620000f7306002601460405180602001604052806000815250620001e760201b60201c565b62000f23565b8060029080519060200190620001159291906200072c565b5050565b600033905090565b6000600360009054906101000a900473ffffffffffffffffffffffffffffffffffffffff16905081600360006101000a81548173ffffffffffffffffffffffffffffffffffffffff021916908373ffffffffffffffffffffffffffffffffffffffff1602179055508173ffffffffffffffffffffffffffffffffffffffff168173ffffffffffffffffffffffffffffffffffffffff167f8be0079c531659141344cd1fd0a4f28419497f9722a3daafe3b4186f6b6457e060405160405180910390a35050565b600073ffffffffffffffffffffffffffffffffffffffff168473ffffffffffffffffffffffffffffffffffffffff1614156200025a576040517f08c379a0000000000000000000000000000000000000000000000000000000008152600401620002519062000863565b60405180910390fd5b60006200026c6200011960201b60201c565b905060006200028185620003cf60201b60201c565b905060006200029685620003cf60201b60201c565b9050620002af836000898585896200045060201b60201c565b8460008088815260200190815260200160002060008973ffffffffffffffffffffffffffffffffffffffff1673ffffffffffffffffffffffffffffffffffffffff1681526020019081526020016000206000828254620003109190620008be565b925050819055508673ffffffffffffffffffffffffffffffffffffffff16600073ffffffffffffffffffffffffffffffffffffffff168473ffffffffffffffffffffffffffffffffffffffff167fc3d58168c5ae7397731d063d5bbf3d657854427343f4c083240f7aacaa2d0f628989604051620003909291906200092c565b60405180910390a4620003af836000898585896200048360201b60201c565b620003c6836000898989896200048b60201b60201c565b50505050505050565b60606000600167ffffffffffffffff811115620003f157620003f062000959565b5b604051908082528060200260200182016040528015620004205781602001602082028036833780820191505090505b50905082816000815181106200043b576200043a62000988565b5b60200260200101818152505080915050919050565b620004606200069560201b60201c565b6200047b868686868686620006ea60201b620009f61760201c565b505050505050565b505050505050565b620004b78473ffffffffffffffffffffffffffffffffffffffff16620006f260201b620009fe1760201c565b156200068d578373ffffffffffffffffffffffffffffffffffffffff1663f23a6e6187878686866040518663ffffffff1660e01b81526004016200050095949392919062000aa0565b602060405180830381600087803b1580156200051b57600080fd5b505af19250505080156200054f57506040513d601f19601f820116820180604052508101906200054c919062000b70565b60015b62000601576200055e62000baf565b806308c379a01415620005c257506200057662000c0a565b80620005835750620005c4565b806040517f08c379a0000000000000000000000000000000000000000000000000000000008152600401620005b9919062000cf8565b60405180910390fd5b505b6040517f08c379a0000000000000000000000000000000000000000000000000000000008152600401620005f89062000d92565b60405180910390fd5b63f23a6e6160e01b7bffffffffffffffffffffffffffffffffffffffffffffffffffffffff1916817bffffffffffffffffffffffffffffffffffffffffffffffffffffffff1916146200068b576040517f08c379a0000000000000000000000000000000000000000000000000000000008152600401620006829062000e2a565b60405180910390fd5b505b505050505050565b620006a56200071560201b60201c565b15620006e8576040517f08c379a0000000000000000000000000000000000000000000000000000000008152600401620006df9062000e9c565b60405180910390fd5b565b505050505050565b6000808273ffffffffffffffffffffffffffffffffffffffff163b119050919050565b6000600360149054906101000a900460ff16905090565b8280546200073a9062000eed565b90600052602060002090601f0160209004810192826200075e5760008555620007aa565b82601f106200077957805160ff1916838001178555620007aa565b82800160010185558215620007aa579182015b82811115620007a95782518255916020019190600101906200078c565b5b509050620007b99190620007bd565b5090565b5b80821115620007d8576000816000905550600101620007be565b5090565b600082825260208201905092915050565b7f455243313135353a206d696e7420746f20746865207a65726f2061646472657360008201527f7300000000000000000000000000000000000000000000000000000000000000602082015250565b60006200084b602183620007dc565b91506200085882620007ed565b604082019050919050565b600060208201905081810360008301526200087e816200083c565b9050919050565b6000819050919050565b7f4e487b7100000000000000000000000000000000000000000000000000000000600052601160045260246000fd5b6000620008cb8262000885565b9150620008d88362000885565b9250827fffffffffffffffffffffffffffffffffffffffffffffffffffffffffffffffff0382111562000910576200090f6200088f565b5b828201905092915050565b620009268162000885565b82525050565b60006040820190506200094360008301856200091b565b6200095260208301846200091b565b9392505050565b7f4e487b7100000000000000000000000000000000000000000000000000000000600052604160045260246000fd5b7f4e487b7100000000000000000000000000000000000000000000000000000000600052603260045260246000fd5b600073ffffffffffffffffffffffffffffffffffffffff82169050919050565b6000620009e482620009b7565b9050919050565b620009f681620009d7565b82525050565b600081519050919050565b600082825260208201905092915050565b60005b8381101562000a3857808201518184015260208101905062000a1b565b8381111562000a48576000848401525b50505050565b6000601f19601f8301169050919050565b600062000a6c82620009fc565b62000a78818562000a07565b935062000a8a81856020860162000a18565b62000a958162000a4e565b840191505092915050565b600060a08201905062000ab76000830188620009eb565b62000ac66020830187620009eb565b62000ad560408301866200091b565b62000ae460608301856200091b565b818103608083015262000af8818462000a5f565b90509695505050505050565b6000604051905090565b600080fd5b60007fffffffff0000000000000000000000000000000000000000000000000000000082169050919050565b62000b4a8162000b13565b811462000b5657600080fd5b50565b60008151905062000b6a8162000b3f565b92915050565b60006020828403121562000b895762000b8862000b0e565b5b600062000b998482850162000b59565b91505092915050565b60008160e01c9050919050565b600060033d111562000bd15760046000803e62000bce60005162000ba2565b90505b90565b62000bdf8262000a4e565b810181811067ffffffffffffffff8211171562000c015762000c0062000959565b5b80604052505050565b600060443d101562000c1c5762000ca9565b62000c2662000b04565b60043d036004823e80513d602482011167ffffffffffffffff8211171562000c5057505062000ca9565b808201805167ffffffffffffffff81111562000c70575050505062000ca9565b80602083010160043d03850181111562000c8f57505050505062000ca9565b62000ca08260200185018662000bd4565b82955050505050505b90565b600081519050919050565b600062000cc48262000cac565b62000cd08185620007dc565b935062000ce281856020860162000a18565b62000ced8162000a4e565b840191505092915050565b6000602082019050818103600083015262000d14818462000cb7565b905092915050565b7f455243313135353a207472616e7366657220746f206e6f6e2d4552433131353560008201527f526563656976657220696d706c656d656e746572000000000000000000000000602082015250565b600062000d7a603483620007dc565b915062000d878262000d1c565b604082019050919050565b6000602082019050818103600083015262000dad8162000d6b565b9050919050565b7f455243313135353a204552433131353552656365697665722072656a6563746560008201527f6420746f6b656e73000000000000000000000000000000000000000000000000602082015250565b600062000e12602883620007dc565b915062000e1f8262000db4565b604082019050919050565b6000602082019050818103600083015262000e458162000e03565b9050919050565b7f5061757361626c653a2070617573656400000000000000000000000000000000600082015250565b600062000e84601083620007dc565b915062000e918262000e4c565b602082019050919050565b6000602082019050818103600083015262000eb78162000e75565b9050919050565b7f4e487b7100000000000000000000000000000000000000000000000000000000600052602260045260246000fd5b6000600282049050600182168062000f0657607f821691505b6020821081141562000f1d5762000f1c62000ebe565b5b50919050565b6132ad8062000f336000396000f3fe608060405234801561001057600080fd5b50600436106101205760003560e01c80635c975abb116100ad5780638da5cb5b116100715780638da5cb5b146102cd578063a22cb465146102eb578063e985e9c514610307578063f242432a14610337578063f2fde38b1461035357610120565b80635c975abb14610261578063654153e01461027f578063715018a61461029d578063731133e9146102a75780638456cb59146102c357610120565b80630e89341c116100f45780630e89341c146101bf5780631f7fdffa146101ef5780632eb2c2d61461020b5780633f4ba83a146102275780634e1273f41461023157610120565b8062fdd58e1461012557806301ffc9a71461015557806302fe53051461018557806304128a21146101a1575b600080fd5b61013f600480360381019061013a9190611c5b565b61036f565b60405161014c9190611caa565b60405180910390f35b61016f600480360381019061016a9190611d1d565b610438565b60405161017c9190611d65565b60405180910390f35b61019f600480360381019061019a9190611ec6565b61051a565b005b6101a961052e565b6040516101b69190611caa565b60405180910390f35b6101d960048036038101906101d49190611f0f565b610533565b6040516101e69190611fc4565b60405180910390f35b6102096004803603810190610204919061214f565b6105c7565b005b6102256004803603810190610220919061220a565b6105e1565b005b61022f610682565b005b61024b6004803603810190610246919061239c565b610694565b60405161025891906124d2565b60405180910390f35b6102696107ad565b6040516102769190611d65565b60405180910390f35b6102876107c4565b6040516102949190611caa565b60405180910390f35b6102a56107c9565b005b6102c160048036038101906102bc91906124f4565b6107dd565b005b6102cb6107eb565b005b6102d56107fd565b6040516102e29190612586565b60405180910390f35b610305600480360381019061030091906125cd565b610827565b005b610321600480360381019061031c919061260d565b61083d565b60405161032e9190611d65565b60405180910390f35b610351600480360381019061034c919061264d565b6108d1565b005b61036d600480360381019061036891906126e4565b610972565b005b60008073ffffffffffffffffffffffffffffffffffffffff168373ffffffffffffffffffffffffffffffffffffffff1614156103e0576040517f08c379a00000000000000000000000000000000000000000000000000000000081526004016103d790612783565b60405180910390fd5b60008083815260200190815260200160002060008473ffffffffffffffffffffffffffffffffffffffff1673ffffffffffffffffffffffffffffffffffffffff16815260200190815260200160002054905092915050565b60007fd9b67a26000000000000000000000000000000000000000000000000000000007bffffffffffffffffffffffffffffffffffffffffffffffffffffffff1916827bffffffffffffffffffffffffffffffffffffffffffffffffffffffff1916148061050357507f0e89341c000000000000000000000000000000000000000000000000000000007bffffffffffffffffffffffffffffffffffffffffffffffffffffffff1916827bffffffffffffffffffffffffffffffffffffffffffffffffffffffff1916145b80610513575061051282610a21565b5b9050919050565b610522610a8b565b61052b81610b09565b50565b600281565b606060028054610542906127d2565b80601f016020809104026020016040519081016040528092919081815260200182805461056e906127d2565b80156105bb5780601f10610590576101008083540402835291602001916105bb565b820191906000526020600020905b81548152906001019060200180831161059e57829003601f168201915b50505050509050919050565b6105cf610a8b565b6105db84848484610b23565b50505050565b6105e9610d50565b73ffffffffffffffffffffffffffffffffffffffff168573ffffffffffffffffffffffffffffffffffffffff16148061062f575061062e85610629610d50565b61083d565b5b61066e576040517f08c379a000000000000000000000000000000000000000000000000000000000815260040161066590612876565b60405180910390fd5b61067b8585858585610d58565b5050505050565b61068a610a8b565b61069261107a565b565b606081518351146106da576040517f08c379a00000000000000000000000000000000000000000000000000000000081526004016106d190612908565b60405180910390fd5b6000835167ffffffffffffffff8111156106f7576106f6611d9b565b5b6040519080825280602002602001820160405280156107255781602001602082028036833780820191505090505b50905060005b84518110156107a25761077285828151811061074a57610749612928565b5b602002602001015185838151811061076557610764612928565b5b602002602001015161036f565b82828151811061078557610784612928565b5b6020026020010181815250508061079b90612986565b905061072b565b508091505092915050565b6000600360149054906101000a900460ff16905090565b600181565b6107d1610a8b565b6107db60006110dd565b565b6107e5610a8b565b50505050565b6107f3610a8b565b6107fb6111a3565b565b6000600360009054906101000a900473ffffffffffffffffffffffffffffffffffffffff16905090565b610839610832610d50565b8383611206565b5050565b6000600160008473ffffffffffffffffffffffffffffffffffffffff1673ffffffffffffffffffffffffffffffffffffffff16815260200190815260200160002060008373ffffffffffffffffffffffffffffffffffffffff1673ffffffffffffffffffffffffffffffffffffffff16815260200190815260200160002060009054906101000a900460ff16905092915050565b6108d9610d50565b73ffffffffffffffffffffffffffffffffffffffff168573ffffffffffffffffffffffffffffffffffffffff16148061091f575061091e85610919610d50565b61083d565b5b61095e576040517f08c379a000000000000000000000000000000000000000000000000000000000815260040161095590612876565b60405180910390fd5b61096b8585858585611373565b5050505050565b61097a610a8b565b600073ffffffffffffffffffffffffffffffffffffffff168173ffffffffffffffffffffffffffffffffffffffff1614156109ea576040517f08c379a00000000000000000000000000000000000000000000000000000000081526004016109e190612a41565b60405180910390fd5b6109f3816110dd565b50565b505050505050565b6000808273ffffffffffffffffffffffffffffffffffffffff163b119050919050565b60007f01ffc9a7000000000000000000000000000000000000000000000000000000007bffffffffffffffffffffffffffffffffffffffffffffffffffffffff1916827bffffffffffffffffffffffffffffffffffffffffffffffffffffffff1916149050919050565b610a93610d50565b73ffffffffffffffffffffffffffffffffffffffff16610ab16107fd565b73ffffffffffffffffffffffffffffffffffffffff1614610b07576040517f08c379a0000000000000000000000000000000000000000000000000000000008152600401610afe90612aad565b60405180910390fd5b565b8060029080519060200190610b1f929190611b10565b5050565b600073ffffffffffffffffffffffffffffffffffffffff168473ffffffffffffffffffffffffffffffffffffffff161415610b93576040517f08c379a0000000000000000000000000000000000000000000000000000000008152600401610b8a90612b3f565b60405180910390fd5b8151835114610bd7576040517f08c379a0000000000000000000000000000000000000000000000000000000008152600401610bce90612bd1565b60405180910390fd5b6000610be1610d50565b9050610bf28160008787878761160f565b60005b8451811015610cab57838181518110610c1157610c10612928565b5b6020026020010151600080878481518110610c2f57610c2e612928565b5b6020026020010151815260200190815260200160002060008873ffffffffffffffffffffffffffffffffffffffff1673ffffffffffffffffffffffffffffffffffffffff1681526020019081526020016000206000828254610c919190612bf1565b925050819055508080610ca390612986565b915050610bf5565b508473ffffffffffffffffffffffffffffffffffffffff16600073ffffffffffffffffffffffffffffffffffffffff168273ffffffffffffffffffffffffffffffffffffffff167f4a39dc06d4c0dbc64b70af90fd698a233a518aa5d07e595d983b8c0526c8f7fb8787604051610d23929190612c47565b60405180910390a4610d3a8160008787878761162d565b610d4981600087878787611635565b5050505050565b600033905090565b8151835114610d9c576040517f08c379a0000000000000000000000000000000000000000000000000000000008152600401610d9390612bd1565b60405180910390fd5b600073ffffffffffffffffffffffffffffffffffffffff168473ffffffffffffffffffffffffffffffffffffffff161415610e0c576040517f08c379a0000000000000000000000000000000000000000000000000000000008152600401610e0390612cf0565b60405180910390fd5b6000610e16610d50565b9050610e2681878787878761160f565b60005b8451811015610fd7576000858281518110610e4757610e46612928565b5b602002602001015190506000858381518110610e6657610e65612928565b5b60200260200101519050600080600084815260200190815260200160002060008b73ffffffffffffffffffffffffffffffffffffffff1673ffffffffffffffffffffffffffffffffffffffff16815260200190815260200160002054905081811015610f07576040517f08c379a0000000000000000000000000000000000000000000000000000000008152600401610efe90612d82565b60405180910390fd5b81810360008085815260200190815260200160002060008c73ffffffffffffffffffffffffffffffffffffffff1673ffffffffffffffffffffffffffffffffffffffff168152602001908152602001600020819055508160008085815260200190815260200160002060008b73ffffffffffffffffffffffffffffffffffffffff1673ffffffffffffffffffffffffffffffffffffffff1681526020019081526020016000206000828254610fbc9190612bf1565b9250508190555050505080610fd090612986565b9050610e29565b508473ffffffffffffffffffffffffffffffffffffffff168673ffffffffffffffffffffffffffffffffffffffff168273ffffffffffffffffffffffffffffffffffffffff167f4a39dc06d4c0dbc64b70af90fd698a233a518aa5d07e595d983b8c0526c8f7fb878760405161104e929190612c47565b60405180910390a461106481878787878761162d565b611072818787878787611635565b505050505050565b61108261181c565b6000600360146101000a81548160ff0219169083151502179055507f5db9ee0a495bf2e6ff9c91a7834c1ba4fdd244a5e8aa4e537bd38aeae4b073aa6110c6610d50565b6040516110d39190612586565b60405180910390a1565b6000600360009054906101000a900473ffffffffffffffffffffffffffffffffffffffff16905081600360006101000a81548173ffffffffffffffffffffffffffffffffffffffff021916908373ffffffffffffffffffffffffffffffffffffffff1602179055508173ffffffffffffffffffffffffffffffffffffffff168173ffffffffffffffffffffffffffffffffffffffff167f8be0079c531659141344cd1fd0a4f28419497f9722a3daafe3b4186f6b6457e060405160405180910390a35050565b6111ab611865565b6001600360146101000a81548160ff0219169083151502179055507f62e78cea01bee320cd4e420270b5ea74000d11b0c9f74754ebdbfc544b05a2586111ef610d50565b6040516111fc9190612586565b60405180910390a1565b8173ffffffffffffffffffffffffffffffffffffffff168373ffffffffffffffffffffffffffffffffffffffff161415611275576040517f08c379a000000000000000000000000000000000000000000000000000000000815260040161126c90612e14565b60405180910390fd5b80600160008573ffffffffffffffffffffffffffffffffffffffff1673ffffffffffffffffffffffffffffffffffffffff16815260200190815260200160002060008473ffffffffffffffffffffffffffffffffffffffff1673ffffffffffffffffffffffffffffffffffffffff16815260200190815260200160002060006101000a81548160ff0219169083151502179055508173ffffffffffffffffffffffffffffffffffffffff168373ffffffffffffffffffffffffffffffffffffffff167f17307eab39ab6107e8899845ad3d59bd9653f200f220920489ca2b5937696c31836040516113669190611d65565b60405180910390a3505050565b600073ffffffffffffffffffffffffffffffffffffffff168473ffffffffffffffffffffffffffffffffffffffff1614156113e3576040517f08c379a00000000000000000000000000000000000000000000000000000000081526004016113da90612cf0565b60405180910390fd5b60006113ed610d50565b905060006113fa856118af565b90506000611407856118af565b905061141783898985858961160f565b600080600088815260200190815260200160002060008a73ffffffffffffffffffffffffffffffffffffffff1673ffffffffffffffffffffffffffffffffffffffff168152602001908152602001600020549050858110156114ae576040517f08c379a00000000000000000000000000000000000000000000000000000000081526004016114a590612d82565b60405180910390fd5b85810360008089815260200190815260200160002060008b73ffffffffffffffffffffffffffffffffffffffff1673ffffffffffffffffffffffffffffffffffffffff168152602001908152602001600020819055508560008089815260200190815260200160002060008a73ffffffffffffffffffffffffffffffffffffffff1673ffffffffffffffffffffffffffffffffffffffff16815260200190815260200160002060008282546115639190612bf1565b925050819055508773ffffffffffffffffffffffffffffffffffffffff168973ffffffffffffffffffffffffffffffffffffffff168573ffffffffffffffffffffffffffffffffffffffff167fc3d58168c5ae7397731d063d5bbf3d657854427343f4c083240f7aacaa2d0f628a8a6040516115e0929190612e34565b60405180910390a46115f6848a8a86868a61162d565b611604848a8a8a8a8a611929565b505050505050505050565b611617611865565b6116258686868686866109f6565b505050505050565b505050505050565b6116548473ffffffffffffffffffffffffffffffffffffffff166109fe565b15611814578373ffffffffffffffffffffffffffffffffffffffff1663bc197c8187878686866040518663ffffffff1660e01b815260040161169a959493929190612eb2565b602060405180830381600087803b1580156116b457600080fd5b505af19250505080156116e557506040513d601f19601f820116820180604052508101906116e29190612f2f565b60015b61178b576116f1612f69565b806308c379a0141561174e5750611706612f8b565b806117115750611750565b806040517f08c379a00000000000000000000000000000000000000000000000000000000081526004016117459190611fc4565b60405180910390fd5b505b6040517f08c379a000000000000000000000000000000000000000000000000000000000815260040161178290613093565b60405180910390fd5b63bc197c8160e01b7bffffffffffffffffffffffffffffffffffffffffffffffffffffffff1916817bffffffffffffffffffffffffffffffffffffffffffffffffffffffff191614611812576040517f08c379a000000000000000000000000000000000000000000000000000000000815260040161180990613125565b60405180910390fd5b505b505050505050565b6118246107ad565b611863576040517f08c379a000000000000000000000000000000000000000000000000000000000815260040161185a90613191565b60405180910390fd5b565b61186d6107ad565b156118ad576040517f08c379a00000000000000000000000000000000000000000000000000000000081526004016118a4906131fd565b60405180910390fd5b565b60606000600167ffffffffffffffff8111156118ce576118cd611d9b565b5b6040519080825280602002602001820160405280156118fc5781602001602082028036833780820191505090505b509050828160008151811061191457611913612928565b5b60200260200101818152505080915050919050565b6119488473ffffffffffffffffffffffffffffffffffffffff166109fe565b15611b08578373ffffffffffffffffffffffffffffffffffffffff1663f23a6e6187878686866040518663ffffffff1660e01b815260040161198e95949392919061321d565b602060405180830381600087803b1580156119a857600080fd5b505af19250505080156119d957506040513d601f19601f820116820180604052508101906119d69190612f2f565b60015b611a7f576119e5612f69565b806308c379a01415611a4257506119fa612f8b565b80611a055750611a44565b806040517f08c379a0000000000000000000000000000000000000000000000000000000008152600401611a399190611fc4565b60405180910390fd5b505b6040517f08c379a0000000000000000000000000000000000000000000000000000000008152600401611a7690613093565b60405180910390fd5b63f23a6e6160e01b7bffffffffffffffffffffffffffffffffffffffffffffffffffffffff1916817bffffffffffffffffffffffffffffffffffffffffffffffffffffffff191614611b06576040517f08c379a0000000000000000000000000000000000000000000000000000000008152600401611afd90613125565b60405180910390fd5b505b505050505050565b828054611b1c906127d2565b90600052602060002090601f016020900481019282611b3e5760008555611b85565b82601f10611b5757805160ff1916838001178555611b85565b82800160010185558215611b85579182015b82811115611b84578251825591602001919060010190611b69565b5b509050611b929190611b96565b5090565b5b80821115611baf576000816000905550600101611b97565b5090565b6000604051905090565b600080fd5b600080fd5b600073ffffffffffffffffffffffffffffffffffffffff82169050919050565b6000611bf282611bc7565b9050919050565b611c0281611be7565b8114611c0d57600080fd5b50565b600081359050611c1f81611bf9565b92915050565b6000819050919050565b611c3881611c25565b8114611c4357600080fd5b50565b600081359050611c5581611c2f565b92915050565b60008060408385031215611c7257611c71611bbd565b5b6000611c8085828601611c10565b9250506020611c9185828601611c46565b9150509250929050565b611ca481611c25565b82525050565b6000602082019050611cbf6000830184611c9b565b92915050565b60007fffffffff0000000000000000000000000000000000000000000000000000000082169050919050565b611cfa81611cc5565b8114611d0557600080fd5b50565b600081359050611d1781611cf1565b92915050565b600060208284031215611d3357611d32611bbd565b5b6000611d4184828501611d08565b91505092915050565b60008115159050919050565b611d5f81611d4a565b82525050565b6000602082019050611d7a6000830184611d56565b92915050565b600080fd5b600080fd5b6000601f19601f8301169050919050565b7f4e487b7100000000000000000000000000000000000000000000000000000000600052604160045260246000fd5b611dd382611d8a565b810181811067ffffffffffffffff82111715611df257611df1611d9b565b5b80604052505050565b6000611e05611bb3565b9050611e118282611dca565b919050565b600067ffffffffffffffff821115611e3157611e30611d9b565b5b611e3a82611d8a565b9050602081019050919050565b82818337600083830152505050565b6000611e69611e6484611e16565b611dfb565b905082815260208101848484011115611e8557611e84611d85565b5b611e90848285611e47565b509392505050565b600082601f830112611ead57611eac611d80565b5b8135611ebd848260208601611e56565b91505092915050565b600060208284031215611edc57611edb611bbd565b5b600082013567ffffffffffffffff811115611efa57611ef9611bc2565b5b611f0684828501611e98565b91505092915050565b600060208284031215611f2557611f24611bbd565b5b6000611f3384828501611c46565b91505092915050565b600081519050919050565b600082825260208201905092915050565b60005b83811015611f76578082015181840152602081019050611f5b565b83811115611f85576000848401525b50505050565b6000611f9682611f3c565b611fa08185611f47565b9350611fb0818560208601611f58565b611fb981611d8a565b840191505092915050565b60006020820190508181036000830152611fde8184611f8b565b905092915050565b600067ffffffffffffffff82111561200157612000611d9b565b5b602082029050602081019050919050565b600080fd5b600061202a61202584611fe6565b611dfb565b9050808382526020820190506020840283018581111561204d5761204c612012565b5b835b8181101561207657806120628882611c46565b84526020840193505060208101905061204f565b5050509392505050565b600082601f83011261209557612094611d80565b5b81356120a5848260208601612017565b91505092915050565b600067ffffffffffffffff8211156120c9576120c8611d9b565b5b6120d282611d8a565b9050602081019050919050565b60006120f26120ed846120ae565b611dfb565b90508281526020810184848401111561210e5761210d611d85565b5b612119848285611e47565b509392505050565b600082601f83011261213657612135611d80565b5b81356121468482602086016120df565b91505092915050565b6000806000806080858703121561216957612168611bbd565b5b600061217787828801611c10565b945050602085013567ffffffffffffffff81111561219857612197611bc2565b5b6121a487828801612080565b935050604085013567ffffffffffffffff8111156121c5576121c4611bc2565b5b6121d187828801612080565b925050606085013567ffffffffffffffff8111156121f2576121f1611bc2565b5b6121fe87828801612121565b91505092959194509250565b600080600080600060a0868803121561222657612225611bbd565b5b600061223488828901611c10565b955050602061224588828901611c10565b945050604086013567ffffffffffffffff81111561226657612265611bc2565b5b61227288828901612080565b935050606086013567ffffffffffffffff81111561229357612292611bc2565b5b61229f88828901612080565b925050608086013567ffffffffffffffff8111156122c0576122bf611bc2565b5b6122cc88828901612121565b9150509295509295909350565b600067ffffffffffffffff8211156122f4576122f3611d9b565b5b602082029050602081019050919050565b6000612318612313846122d9565b611dfb565b9050808382526020820190506020840283018581111561233b5761233a612012565b5b835b8181101561236457806123508882611c10565b84526020840193505060208101905061233d565b5050509392505050565b600082601f83011261238357612382611d80565b5b8135612393848260208601612305565b91505092915050565b600080604083850312156123b3576123b2611bbd565b5b600083013567ffffffffffffffff8111156123d1576123d0611bc2565b5b6123dd8582860161236e565b925050602083013567ffffffffffffffff8111156123fe576123fd611bc2565b5b61240a85828601612080565b9150509250929050565b600081519050919050565b600082825260208201905092915050565b6000819050602082019050919050565b61244981611c25565b82525050565b600061245b8383612440565b60208301905092915050565b6000602082019050919050565b600061247f82612414565b612489818561241f565b935061249483612430565b8060005b838110156124c55781516124ac888261244f565b97506124b783612467565b925050600181019050612498565b5085935050505092915050565b600060208201905081810360008301526124ec8184612474565b905092915050565b6000806000806080858703121561250e5761250d611bbd565b5b600061251c87828801611c10565b945050602061252d87828801611c46565b935050604061253e87828801611c46565b925050606085013567ffffffffffffffff81111561255f5761255e611bc2565b5b61256b87828801612121565b91505092959194509250565b61258081611be7565b82525050565b600060208201905061259b6000830184612577565b92915050565b6125aa81611d4a565b81146125b557600080fd5b50565b6000813590506125c7816125a1565b92915050565b600080604083850312156125e4576125e3611bbd565b5b60006125f285828601611c10565b9250506020612603858286016125b8565b9150509250929050565b6000806040838503121561262457612623611bbd565b5b600061263285828601611c10565b925050602061264385828601611c10565b9150509250929050565b600080600080600060a0868803121561266957612668611bbd565b5b600061267788828901611c10565b955050602061268888828901611c10565b945050604061269988828901611c46565b93505060606126aa88828901611c46565b925050608086013567ffffffffffffffff8111156126cb576126ca611bc2565b5b6126d788828901612121565b9150509295509295909350565b6000602082840312156126fa576126f9611bbd565b5b600061270884828501611c10565b91505092915050565b7f455243313135353a2061646472657373207a65726f206973206e6f742061207660008201527f616c6964206f776e657200000000000000000000000000000000000000000000602082015250565b600061276d602a83611f47565b915061277882612711565b604082019050919050565b6000602082019050818103600083015261279c81612760565b9050919050565b7f4e487b7100000000000000000000000000000000000000000000000000000000600052602260045260246000fd5b600060028204905060018216806127ea57607f821691505b602082108114156127fe576127fd6127a3565b5b50919050565b7f455243313135353a2063616c6c6572206973206e6f7420746f6b656e206f776e60008201527f6572206f7220617070726f766564000000000000000000000000000000000000602082015250565b6000612860602e83611f47565b915061286b82612804565b604082019050919050565b6000602082019050818103600083015261288f81612853565b9050919050565b7f455243313135353a206163636f756e747320616e6420696473206c656e67746860008201527f206d69736d617463680000000000000000000000000000000000000000000000602082015250565b60006128f2602983611f47565b91506128fd82612896565b604082019050919050565b60006020820190508181036000830152612921816128e5565b9050919050565b7f4e487b7100000000000000000000000000000000000000000000000000000000600052603260045260246000fd5b7f4e487b7100000000000000000000000000000000000000000000000000000000600052601160045260246000fd5b600061299182611c25565b91507fffffffffffffffffffffffffffffffffffffffffffffffffffffffffffffffff8214156129c4576129c3612957565b5b600182019050919050565b7f4f776e61626c653a206e6577206f776e657220697320746865207a65726f206160008201527f6464726573730000000000000000000000000000000000000000000000000000602082015250565b6000612a2b602683611f47565b9150612a36826129cf565b604082019050919050565b60006020820190508181036000830152612a5a81612a1e565b9050919050565b7f4f776e61626c653a2063616c6c6572206973206e6f7420746865206f776e6572600082015250565b6000612a97602083611f47565b9150612aa282612a61565b602082019050919050565b60006020820190508181036000830152612ac681612a8a565b9050919050565b7f455243313135353a206d696e7420746f20746865207a65726f2061646472657360008201527f7300000000000000000000000000000000000000000000000000000000000000602082015250565b6000612b29602183611f47565b9150612b3482612acd565b604082019050919050565b60006020820190508181036000830152612b5881612b1c565b9050919050565b7f455243313135353a2069647320616e6420616d6f756e7473206c656e6774682060008201527f6d69736d61746368000000000000000000000000000000000000000000000000602082015250565b6000612bbb602883611f47565b9150612bc682612b5f565b604082019050919050565b60006020820190508181036000830152612bea81612bae565b9050919050565b6000612bfc82611c25565b9150612c0783611c25565b9250827fffffffffffffffffffffffffffffffffffffffffffffffffffffffffffffffff03821115612c3c57612c3b612957565b5b828201905092915050565b60006040820190508181036000830152612c618185612474565b90508181036020830152612c758184612474565b90509392505050565b7f455243313135353a207472616e7366657220746f20746865207a65726f20616460008201527f6472657373000000000000000000000000000000000000000000000000000000602082015250565b6000612cda602583611f47565b9150612ce582612c7e565b604082019050919050565b60006020820190508181036000830152612d0981612ccd565b9050919050565b7f455243313135353a20696e73756666696369656e742062616c616e636520666f60008201527f72207472616e7366657200000000000000000000000000000000000000000000602082015250565b6000612d6c602a83611f47565b9150612d7782612d10565b604082019050919050565b60006020820190508181036000830152612d9b81612d5f565b9050919050565b7f455243313135353a2073657474696e6720617070726f76616c2073746174757360008201527f20666f722073656c660000000000000000000000000000000000000000000000602082015250565b6000612dfe602983611f47565b9150612e0982612da2565b604082019050919050565b60006020820190508181036000830152612e2d81612df1565b9050919050565b6000604082019050612e496000830185611c9b565b612e566020830184611c9b565b9392505050565b600081519050919050565b600082825260208201905092915050565b6000612e8482612e5d565b612e8e8185612e68565b9350612e9e818560208601611f58565b612ea781611d8a565b840191505092915050565b600060a082019050612ec76000830188612577565b612ed46020830187612577565b8181036040830152612ee68186612474565b90508181036060830152612efa8185612474565b90508181036080830152612f0e8184612e79565b90509695505050505050565b600081519050612f2981611cf1565b92915050565b600060208284031215612f4557612f44611bbd565b5b6000612f5384828501612f1a565b91505092915050565b60008160e01c9050919050565b600060033d1115612f885760046000803e612f85600051612f5c565b90505b90565b600060443d1015612f9b5761301e565b612fa3611bb3565b60043d036004823e80513d602482011167ffffffffffffffff82111715612fcb57505061301e565b808201805167ffffffffffffffff811115612fe9575050505061301e565b80602083010160043d03850181111561300657505050505061301e565b61301582602001850186611dca565b82955050505050505b90565b7f455243313135353a207472616e7366657220746f206e6f6e2d4552433131353560008201527f526563656976657220696d706c656d656e746572000000000000000000000000602082015250565b600061307d603483611f47565b915061308882613021565b604082019050919050565b600060208201905081810360008301526130ac81613070565b9050919050565b7f455243313135353a204552433131353552656365697665722072656a6563746560008201527f6420746f6b656e73000000000000000000000000000000000000000000000000602082015250565b600061310f602883611f47565b915061311a826130b3565b604082019050919050565b6000602082019050818103600083015261313e81613102565b9050919050565b7f5061757361626c653a206e6f7420706175736564000000000000000000000000600082015250565b600061317b601483611f47565b915061318682613145565b602082019050919050565b600060208201905081810360008301526131aa8161316e565b9050919050565b7f5061757361626c653a2070617573656400000000000000000000000000000000600082015250565b60006131e7601083611f47565b91506131f2826131b1565b602082019050919050565b60006020820190508181036000830152613216816131da565b9050919050565b600060a0820190506132326000830188612577565b61323f6020830187612577565b61324c6040830186611c9b565b6132596060830185611c9b565b818103608083015261326b8184612e79565b9050969550505050505056fea2646970667358221220217a35ee9cc08263bdaf119e69f2439c7051df4e6104b390af321bb7e9c0a48664736f6c6343000809003368747470733a2f2f67616d652e6578616d706c652f6170692f6974656d2f6369642f",
  "linkReferences": {},
  "deployedLinkReferences": {}
}