{
  "_format": "hh-sol-artifact-1",
  "contractName": "Insurance",
  "sourceName": "contracts/Insurance.sol",
  "abi": [
    {
      "inputs": [],
      "stateMutability": "nonpayable",
      "type": "constructor"
    },
    {
      "anonymous": false,
      "inputs": [
        {
          "indexed": true,
          "internalType": "address",
          "name": "owner",
          "type": "address"
        },
        {
          "indexed": true,
          "internalType": "address",
          "name": "approved",
          "type": "address"
        },
        {
          "indexed": true,
          "internalType": "uint256",
          "name": "tokenId",
          "type": "uint256"
        }
      ],
      "name": "Approval",
      "type": "event"
    },
    {
      "anonymous": false,
      "inputs": [
        {
          "indexed": true,
          "internalType": "address",
          "name": "owner",
          "type": "address"
        },
        {
          "indexed": true,
          "internalType": "address",
          "name": "operator",
          "type": "address"
        },
        {
          "indexed": false,
          "internalType": "bool",
          "name": "approved",
          "type": "bool"
        }
      ],
      "name": "ApprovalForAll",
      "type": "event"
    },
    {
      "anonymous": false,
      "inputs": [
        {
          "indexed": true,
          "internalType": "address",
          "name": "from",
          "type": "address"
        },
        {
          "indexed": true,
          "internalType": "address",
          "name": "to",
          "type": "address"
        },
        {
          "indexed": true,
          "internalType": "uint256",
          "name": "tokenId",
          "type": "uint256"
        }
      ],
      "name": "Transfer",
      "type": "event"
    },
    {
      "inputs": [
        {
          "internalType": "uint256",
          "name": "_userId",
          "type": "uint256"
        },
        {
          "internalType": "string",
          "name": "_url",
          "type": "string"
        }
      ],
      "name": "addMetadata",
      "outputs": [
        {
          "internalType": "bool",
          "name": "",
          "type": "bool"
        }
      ],
      "stateMutability": "nonpayable",
      "type": "function"
    },
    {
      "inputs": [
        {
          "internalType": "uint256",
          "name": "_userId",
          "type": "uint256"
        },
        {
          "internalType": "string",
          "name": "_userName",
          "type": "string"
        },
        {
          "internalType": "string",
          "name": "_carName",
          "type": "string"
        },
        {
          "internalType": "uint256",
          "name": "_carPrice",
          "type": "uint256"
        },
        {
          "internalType": "uint256",
          "name": "_policyType",
          "type": "uint256"
        },
        {
          "internalType": "uint256",
          "name": "_premium",
          "type": "uint256"
        }
      ],
      "name": "addToken",
      "outputs": [
        {
          "internalType": "uint256",
          "name": "",
          "type": "uint256"
        },
        {
          "components": [
            {
              "internalType": "uint256",
              "name": "userId",
              "type": "uint256"
            },
            {
              "internalType": "string",
              "name": "userName",
              "type": "string"
            },
            {
              "internalType": "string",
              "name": "carName",
              "type": "string"
            },
            {
              "internalType": "uint256",
              "name": "carPrice",
              "type": "uint256"
            },
            {
              "internalType": "uint256",
              "name": "policyType",
              "type": "uint256"
            },
            {
              "internalType": "uint256",
              "name": "premium",
              "type": "uint256"
            }
          ],
          "internalType": "struct Insurance.User",
          "name": "",
          "type": "tuple"
        }
      ],
      "stateMutability": "payable",
      "type": "function"
    },
    {
      "inputs": [
        {
          "internalType": "address",
          "name": "to",
          "type": "address"
        },
        {
          "internalType": "uint256",
          "name": "tokenId",
          "type": "uint256"
        }
      ],
      "name": "approve",
      "outputs": [],
      "stateMutability": "nonpayable",
      "type": "function"
    },
    {
      "inputs": [
        {
          "internalType": "address",
          "name": "owner",
          "type": "address"
        }
      ],
      "name": "balanceOf",
      "outputs": [
        {
          "internalType": "uint256",
          "name": "",
          "type": "uint256"
        }
      ],
      "stateMutability": "view",
      "type": "function"
    },
    {
      "inputs": [],
      "name": "baseURI",
      "outputs": [
        {
          "internalType": "string",
          "name": "",
          "type": "string"
        }
      ],
      "stateMutability": "view",
      "type": "function"
    },
    {
      "inputs": [
        {
          "internalType": "uint256",
          "name": "tokenId",
          "type": "uint256"
        }
      ],
      "name": "getApproved",
      "outputs": [
        {
          "internalType": "address",
          "name": "",
          "type": "address"
        }
      ],
      "stateMutability": "view",
      "type": "function"
    },
    {
      "inputs": [
        {
          "internalType": "address",
          "name": "owner",
          "type": "address"
        },
        {
          "internalType": "address",
          "name": "operator",
          "type": "address"
        }
      ],
      "name": "isApprovedForAll",
      "outputs": [
        {
          "internalType": "bool",
          "name": "",
          "type": "bool"
        }
      ],
      "stateMutability": "view",
      "type": "function"
    },
    {
      "inputs": [],
      "name": "name",
      "outputs": [
        {
          "internalType": "string",
          "name": "",
          "type": "string"
        }
      ],
      "stateMutability": "view",
      "type": "function"
    },
    {
      "inputs": [
        {
          "internalType": "uint256",
          "name": "tokenId",
          "type": "uint256"
        }
      ],
      "name": "ownerOf",
      "outputs": [
        {
          "internalType": "address",
          "name": "",
          "type": "address"
        }
      ],
      "stateMutability": "view",
      "type": "function"
    },
    {
      "inputs": [
        {
          "internalType": "address",
          "name": "from",
          "type": "address"
        },
        {
          "internalType": "address",
          "name": "to",
          "type": "address"
        },
        {
          "internalType": "uint256",
          "name": "tokenId",
          "type": "uint256"
        }
      ],
      "name": "safeTransferFrom",
      "outputs": [],
      "stateMutability": "nonpayable",
      "type": "function"
    },
    {
      "inputs": [
        {
          "internalType": "address",
          "name": "from",
          "type": "address"
        },
        {
          "internalType": "address",
          "name": "to",
          "type": "address"
        },
        {
          "internalType": "uint256",
          "name": "tokenId",
          "type": "uint256"
        },
        {
          "internalType": "bytes",
          "name": "data",
          "type": "bytes"
        }
      ],
      "name": "safeTransferFrom",
      "outputs": [],
      "stateMutability": "nonpayable",
      "type": "function"
    },
    {
      "inputs": [
        {
          "internalType": "address",
          "name": "operator",
          "type": "address"
        },
        {
          "internalType": "bool",
          "name": "approved",
          "type": "bool"
        }
      ],
      "name": "setApprovalForAll",
      "outputs": [],
      "stateMutability": "nonpayable",
      "type": "function"
    },
    {
      "inputs": [
        {
          "internalType": "bytes4",
          "name": "interfaceId",
          "type": "bytes4"
        }
      ],
      "name": "supportsInterface",
      "outputs": [
        {
          "internalType": "bool",
          "name": "",
          "type": "bool"
        }
      ],
      "stateMutability": "view",
      "type": "function"
    },
    {
      "inputs": [],
      "name": "symbol",
      "outputs": [
        {
          "internalType": "string",
          "name": "",
          "type": "string"
        }
      ],
      "stateMutability": "view",
      "type": "function"
    },
    {
      "inputs": [
        {
          "internalType": "uint256",
          "name": "tokenId",
          "type": "uint256"
        }
      ],
      "name": "tokenURI",
      "outputs": [
        {
          "internalType": "string",
          "name": "",
          "type": "string"
        }
      ],
      "stateMutability": "view",
      "type": "function"
    },
    {
      "inputs": [],
      "name": "totalUsers",
      "outputs": [
        {
          "internalType": "int256",
          "name": "",
          "type": "int256"
        }
      ],
      "stateMutability": "nonpayable",
      "type": "function"
    },
    {
      "inputs": [
        {
          "internalType": "address",
          "name": "from",
          "type": "address"
        },
        {
          "internalType": "address",
          "name": "to",
          "type": "address"
        },
        {
          "internalType": "uint256",
          "name": "tokenId",
          "type": "uint256"
        }
      ],
      "name": "transferFrom",
      "outputs": [],
      "stateMutability": "nonpayable",
      "type": "function"
    }
  ],
  "bytecode": "0x60806040523480156200001157600080fd5b506040518060400160405280600f81526020017f496e737572616e6365506f6c69637900000000000000000000000000000000008152506040518060400160405280600281526020017f4950000000000000000000000000000000000000000000000000000000000000815250816000908051906020019062000096929190620000b8565b508060019080519060200190620000af929190620000b8565b505050620001cd565b828054620000c69062000197565b90600052602060002090601f016020900481019282620000ea576000855562000136565b82601f106200010557805160ff191683800117855562000136565b8280016001018555821562000136579182015b828111156200013557825182559160200191906001019062000118565b5b50905062000145919062000149565b5090565b5b80821115620001645760008160009055506001016200014a565b5090565b7f4e487b7100000000000000000000000000000000000000000000000000000000600052602260045260246000fd5b60006002820490506001821680620001b057607f821691505b60208210811415620001c757620001c662000168565b5b50919050565b61358c80620001dd6000396000f3fe6080604052600436106100fe5760003560e01c80636c0360eb11610095578063a22cb46511610064578063a22cb46514610361578063b88d4fde1461038a578063bff1f9e1146103b3578063c87b56dd146103de578063e985e9c51461041b576100fe565b80636c0360eb1461029d57806370a08231146102c857806376c5cad81461030557806395d89b4114610336576100fe565b8063095ea7b3116100d1578063095ea7b3146101e557806323b872dd1461020e57806342842e0e146102375780636352211e14610260576100fe565b80630103a6231461010357806301ffc9a71461014057806306fdde031461017d578063081812fc146101a8575b600080fd5b34801561010f57600080fd5b5061012a600480360381019061012591906123bb565b610458565b6040516101379190612432565b60405180910390f35b34801561014c57600080fd5b50610167600480360381019061016291906124a5565b6104d5565b6040516101749190612432565b60405180910390f35b34801561018957600080fd5b506101926105b7565b60405161019f919061255a565b60405180910390f35b3480156101b457600080fd5b506101cf60048036038101906101ca919061257c565b610649565b6040516101dc91906125ea565b60405180910390f35b3480156101f157600080fd5b5061020c60048036038101906102079190612631565b61068f565b005b34801561021a57600080fd5b5061023560048036038101906102309190612671565b6107a7565b005b34801561024357600080fd5b5061025e60048036038101906102599190612671565b610807565b005b34801561026c57600080fd5b506102876004803603810190610282919061257c565b610827565b60405161029491906125ea565b60405180910390f35b3480156102a957600080fd5b506102b26108ae565b6040516102bf919061255a565b60405180910390f35b3480156102d457600080fd5b506102ef60048036038101906102ea91906126c4565b61093c565b6040516102fc9190612700565b60405180910390f35b61031f600480360381019061031a919061271b565b6109f4565b60405161032d9291906128c9565b60405180910390f35b34801561034257600080fd5b5061034b610e9e565b604051610358919061255a565b60405180910390f35b34801561036d57600080fd5b5061038860048036038101906103839190612925565b610f30565b005b34801561039657600080fd5b506103b160048036038101906103ac9190612a06565b610f46565b005b3480156103bf57600080fd5b506103c8610fa8565b6040516103d59190612aa2565b60405180910390f35b3480156103ea57600080fd5b506104056004803603810190610400919061257c565b610fb2565b604051610412919061255a565b60405180910390f35b34801561042757600080fd5b50610442600480360381019061043d9190612abd565b610fc4565b60405161044f9190612432565b60405180910390f35b600060011515600b600085815260200190815260200160002060009054906101000a900460ff161515146104c1576040517f08c379a00000000000000000000000000000000000000000000000000000000081526004016104b890612b49565b60405180910390fd5b6104cb8383611058565b6001905092915050565b60007f80ac58cd000000000000000000000000000000000000000000000000000000007bffffffffffffffffffffffffffffffffffffffffffffffffffffffff1916827bffffffffffffffffffffffffffffffffffffffffffffffffffffffff191614806105a057507f5b5e139f000000000000000000000000000000000000000000000000000000007bffffffffffffffffffffffffffffffffffffffffffffffffffffffff1916827bffffffffffffffffffffffffffffffffffffffffffffffffffffffff1916145b806105b057506105af826110cc565b5b9050919050565b6060600080546105c690612b98565b80601f01602080910402602001604051908101604052809291908181526020018280546105f290612b98565b801561063f5780601f106106145761010080835404028352916020019161063f565b820191906000526020600020905b81548152906001019060200180831161062257829003601f168201915b5050505050905090565b600061065482611136565b6004600083815260200190815260200160002060009054906101000a900473ffffffffffffffffffffffffffffffffffffffff169050919050565b600061069a82610827565b90508073ffffffffffffffffffffffffffffffffffffffff168373ffffffffffffffffffffffffffffffffffffffff16141561070b576040517f08c379a000000000000000000000000000000000000000000000000000000000815260040161070290612c3c565b60405180910390fd5b8073ffffffffffffffffffffffffffffffffffffffff1661072a611181565b73ffffffffffffffffffffffffffffffffffffffff161480610759575061075881610753611181565b610fc4565b5b610798576040517f08c379a000000000000000000000000000000000000000000000000000000000815260040161078f90612cce565b60405180910390fd5b6107a28383611189565b505050565b6107b86107b2611181565b82611242565b6107f7576040517f08c379a00000000000000000000000000000000000000000000000000000000081526004016107ee90612d60565b60405180910390fd5b6108028383836112d7565b505050565b61082283838360405180602001604052806000815250610f46565b505050565b600080610833836115d1565b9050600073ffffffffffffffffffffffffffffffffffffffff168173ffffffffffffffffffffffffffffffffffffffff1614156108a5576040517f08c379a000000000000000000000000000000000000000000000000000000000815260040161089c90612dcc565b60405180910390fd5b80915050919050565b600980546108bb90612b98565b80601f01602080910402602001604051908101604052809291908181526020018280546108e790612b98565b80156109345780601f1061090957610100808354040283529160200191610934565b820191906000526020600020905b81548152906001019060200180831161091757829003601f168201915b505050505081565b60008073ffffffffffffffffffffffffffffffffffffffff168273ffffffffffffffffffffffffffffffffffffffff1614156109ad576040517f08c379a00000000000000000000000000000000000000000000000000000000081526004016109a490612e5e565b60405180910390fd5b600360008373ffffffffffffffffffffffffffffffffffffffff1673ffffffffffffffffffffffffffffffffffffffff168152602001908152602001600020549050919050565b60006109fe612152565b60001515600b60008a815260200190815260200160002060009054906101000a900460ff16151514610a65576040517f08c379a0000000000000000000000000000000000000000000000000000000008152600401610a5c90612eca565b60405180910390fd5b34831480610a7257503483115b610ab1576040517f08c379a0000000000000000000000000000000000000000000000000000000008152600401610aa890612f36565b60405180910390fd5b6000600a60008a81526020019081526020016000206040518060c001604052908160008201548152602001600182018054610aeb90612b98565b80601f0160208091040260200160405190810160405280929190818152602001828054610b1790612b98565b8015610b645780601f10610b3957610100808354040283529160200191610b64565b820191906000526020600020905b815481529060010190602001808311610b4757829003601f168201915b50505050508152602001600282018054610b7d90612b98565b80601f0160208091040260200160405190810160405280929190818152602001828054610ba990612b98565b8015610bf65780601f10610bcb57610100808354040283529160200191610bf6565b820191906000526020600020905b815481529060010190602001808311610bd957829003601f168201915b5050505050815260200160038201548152602001600482015481526020016005820154815250509050888160000181815250508781602001819052508681604001819052508581606001818152505084816080018181525050838160a001818152505080600a60008b8152602001908152602001600020600082015181600001556020820151816001019080519060200190610c93929190612188565b506040820151816002019080519060200190610cb0929190612188565b50606082015181600301556080820151816004015560a082015181600501559050506001600b60008b815260200190815260200160002060006101000a81548160ff021916908315150217905550610d08338a61160e565b60086000815480929190610d1b90612f85565b919050555088600a60008b8152602001908152602001600020806040518060c001604052908160008201548152602001600182018054610d5a90612b98565b80601f0160208091040260200160405190810160405280929190818152602001828054610d8690612b98565b8015610dd35780601f10610da857610100808354040283529160200191610dd3565b820191906000526020600020905b815481529060010190602001808311610db657829003601f168201915b50505050508152602001600282018054610dec90612b98565b80601f0160208091040260200160405190810160405280929190818152602001828054610e1890612b98565b8015610e655780601f10610e3a57610100808354040283529160200191610e65565b820191906000526020600020905b815481529060010190602001808311610e4857829003601f168201915b50505050508152602001600382015481526020016004820154815260200160058201548152505090509250925050965096945050505050565b606060018054610ead90612b98565b80601f0160208091040260200160405190810160405280929190818152602001828054610ed990612b98565b8015610f265780601f10610efb57610100808354040283529160200191610f26565b820191906000526020600020905b815481529060010190602001808311610f0957829003601f168201915b5050505050905090565b610f42610f3b611181565b838361162c565b5050565b610f57610f51611181565b83611242565b610f96576040517f08c379a0000000000000000000000000000000000000000000000000000000008152600401610f8d90612d60565b60405180910390fd5b610fa284848484611799565b50505050565b6000600854905090565b6060610fbd826117f5565b9050919050565b6000600560008473ffffffffffffffffffffffffffffffffffffffff1673ffffffffffffffffffffffffffffffffffffffff16815260200190815260200160002060008373ffffffffffffffffffffffffffffffffffffffff1673ffffffffffffffffffffffffffffffffffffffff16815260200190815260200160002060009054906101000a900460ff16905092915050565b61106182611908565b6110a0576040517f08c379a000000000000000000000000000000000000000000000000000000000815260040161109790613040565b60405180910390fd5b806006600084815260200190815260200160002090805190602001906110c7929190612188565b505050565b60007f01ffc9a7000000000000000000000000000000000000000000000000000000007bffffffffffffffffffffffffffffffffffffffffffffffffffffffff1916827bffffffffffffffffffffffffffffffffffffffffffffffffffffffff1916149050919050565b61113f81611908565b61117e576040517f08c379a000000000000000000000000000000000000000000000000000000000815260040161117590612dcc565b60405180910390fd5b50565b600033905090565b816004600083815260200190815260200160002060006101000a81548173ffffffffffffffffffffffffffffffffffffffff021916908373ffffffffffffffffffffffffffffffffffffffff160217905550808273ffffffffffffffffffffffffffffffffffffffff166111fc83610827565b73ffffffffffffffffffffffffffffffffffffffff167f8c5be1e5ebec7d5bd14f71427d1e84f3dd0314c0f7b2291e5b200ac8c7c3b92560405160405180910390a45050565b60008061124e83610827565b90508073ffffffffffffffffffffffffffffffffffffffff168473ffffffffffffffffffffffffffffffffffffffff161480611290575061128f8185610fc4565b5b806112ce57508373ffffffffffffffffffffffffffffffffffffffff166112b684610649565b73ffffffffffffffffffffffffffffffffffffffff16145b91505092915050565b8273ffffffffffffffffffffffffffffffffffffffff166112f782610827565b73ffffffffffffffffffffffffffffffffffffffff161461134d576040517f08c379a0000000000000000000000000000000000000000000000000000000008152600401611344906130d2565b60405180910390fd5b600073ffffffffffffffffffffffffffffffffffffffff168273ffffffffffffffffffffffffffffffffffffffff1614156113bd576040517f08c379a00000000000000000000000000000000000000000000000000000000081526004016113b490613164565b60405180910390fd5b6113ca8383836001611949565b8273ffffffffffffffffffffffffffffffffffffffff166113ea82610827565b73ffffffffffffffffffffffffffffffffffffffff1614611440576040517f08c379a0000000000000000000000000000000000000000000000000000000008152600401611437906130d2565b60405180910390fd5b6004600082815260200190815260200160002060006101000a81549073ffffffffffffffffffffffffffffffffffffffff02191690556001600360008573ffffffffffffffffffffffffffffffffffffffff1673ffffffffffffffffffffffffffffffffffffffff168152602001908152602001600020600082825403925050819055506001600360008473ffffffffffffffffffffffffffffffffffffffff1673ffffffffffffffffffffffffffffffffffffffff16815260200190815260200160002060008282540192505081905550816002600083815260200190815260200160002060006101000a81548173ffffffffffffffffffffffffffffffffffffffff021916908373ffffffffffffffffffffffffffffffffffffffff160217905550808273ffffffffffffffffffffffffffffffffffffffff168473ffffffffffffffffffffffffffffffffffffffff167fddf252ad1be2c89b69c2b068fc378daa952ba7f163c4a11628f55a4df523b3ef60405160405180910390a46115cc8383836001611a6f565b505050565b60006002600083815260200190815260200160002060009054906101000a900473ffffffffffffffffffffffffffffffffffffffff169050919050565b611628828260405180602001604052806000815250611a75565b5050565b8173ffffffffffffffffffffffffffffffffffffffff168373ffffffffffffffffffffffffffffffffffffffff16141561169b576040517f08c379a0000000000000000000000000000000000000000000000000000000008152600401611692906131d0565b60405180910390fd5b80600560008573ffffffffffffffffffffffffffffffffffffffff1673ffffffffffffffffffffffffffffffffffffffff16815260200190815260200160002060008473ffffffffffffffffffffffffffffffffffffffff1673ffffffffffffffffffffffffffffffffffffffff16815260200190815260200160002060006101000a81548160ff0219169083151502179055508173ffffffffffffffffffffffffffffffffffffffff168373ffffffffffffffffffffffffffffffffffffffff167f17307eab39ab6107e8899845ad3d59bd9653f200f220920489ca2b5937696c318360405161178c9190612432565b60405180910390a3505050565b6117a48484846112d7565b6117b084848484611ad0565b6117ef576040517f08c379a00000000000000000000000000000000000000000000000000000000081526004016117e690613262565b60405180910390fd5b50505050565b606061180082611136565b600060066000848152602001908152602001600020805461182090612b98565b80601f016020809104026020016040519081016040528092919081815260200182805461184c90612b98565b80156118995780601f1061186e57610100808354040283529160200191611899565b820191906000526020600020905b81548152906001019060200180831161187c57829003601f168201915b5050505050905060006118aa611c67565b90506000815114156118c0578192505050611903565b6000825111156118f55780826040516020016118dd9291906132be565b60405160208183030381529060405292505050611903565b6118fe84611c7e565b925050505b919050565b60008073ffffffffffffffffffffffffffffffffffffffff1661192a836115d1565b73ffffffffffffffffffffffffffffffffffffffff1614159050919050565b6001811115611a6957600073ffffffffffffffffffffffffffffffffffffffff168473ffffffffffffffffffffffffffffffffffffffff16146119dd5780600360008673ffffffffffffffffffffffffffffffffffffffff1673ffffffffffffffffffffffffffffffffffffffff16815260200190815260200160002060008282546119d591906132e2565b925050819055505b600073ffffffffffffffffffffffffffffffffffffffff168373ffffffffffffffffffffffffffffffffffffffff1614611a685780600360008573ffffffffffffffffffffffffffffffffffffffff1673ffffffffffffffffffffffffffffffffffffffff1681526020019081526020016000206000828254611a609190613316565b925050819055505b5b50505050565b50505050565b611a7f8383611ce6565b611a8c6000848484611ad0565b611acb576040517f08c379a0000000000000000000000000000000000000000000000000000000008152600401611ac290613262565b60405180910390fd5b505050565b6000611af18473ffffffffffffffffffffffffffffffffffffffff16611f04565b15611c5a578373ffffffffffffffffffffffffffffffffffffffff1663150b7a02611b1a611181565b8786866040518563ffffffff1660e01b8152600401611b3c94939291906133c1565b602060405180830381600087803b158015611b5657600080fd5b505af1925050508015611b8757506040513d601f19601f82011682018060405250810190611b849190613422565b60015b611c0a573d8060008114611bb7576040519150601f19603f3d011682016040523d82523d6000602084013e611bbc565b606091505b50600081511415611c02576040517f08c379a0000000000000000000000000000000000000000000000000000000008152600401611bf990613262565b60405180910390fd5b805181602001fd5b63150b7a0260e01b7bffffffffffffffffffffffffffffffffffffffffffffffffffffffff1916817bffffffffffffffffffffffffffffffffffffffffffffffffffffffff191614915050611c5f565b600190505b949350505050565b606060405180602001604052806000815250905090565b6060611c8982611136565b6000611c93611c67565b90506000815111611cb35760405180602001604052806000815250611cde565b80611cbd84611f27565b604051602001611cce9291906132be565b6040516020818303038152906040525b915050919050565b600073ffffffffffffffffffffffffffffffffffffffff168273ffffffffffffffffffffffffffffffffffffffff161415611d56576040517f08c379a0000000000000000000000000000000000000000000000000000000008152600401611d4d9061349b565b60405180910390fd5b611d5f81611908565b15611d9f576040517f08c379a0000000000000000000000000000000000000000000000000000000008152600401611d9690613507565b60405180910390fd5b611dad600083836001611949565b611db681611908565b15611df6576040517f08c379a0000000000000000000000000000000000000000000000000000000008152600401611ded90613507565b60405180910390fd5b6001600360008473ffffffffffffffffffffffffffffffffffffffff1673ffffffffffffffffffffffffffffffffffffffff16815260200190815260200160002060008282540192505081905550816002600083815260200190815260200160002060006101000a81548173ffffffffffffffffffffffffffffffffffffffff021916908373ffffffffffffffffffffffffffffffffffffffff160217905550808273ffffffffffffffffffffffffffffffffffffffff16600073ffffffffffffffffffffffffffffffffffffffff167fddf252ad1be2c89b69c2b068fc378daa952ba7f163c4a11628f55a4df523b3ef60405160405180910390a4611f00600083836001611a6f565b5050565b6000808273ffffffffffffffffffffffffffffffffffffffff163b119050919050565b606060006001611f3684611fff565b01905060008167ffffffffffffffff811115611f5557611f54612290565b5b6040519080825280601f01601f191660200182016040528015611f875781602001600182028036833780820191505090505b509050600082602001820190505b600115611ff4578080600190039150507f3031323334353637383961626364656600000000000000000000000000000000600a86061a8153600a8581611fde57611fdd613527565b5b0494506000851415611fef57611ff4565b611f95565b819350505050919050565b600080600090507a184f03e93ff9f4daa797ed6e38ed64bf6a1f010000000000000000831061205d577a184f03e93ff9f4daa797ed6e38ed64bf6a1f010000000000000000838161205357612052613527565b5b0492506040810190505b6d04ee2d6d415b85acef8100000000831061209a576d04ee2d6d415b85acef810000000083816120905761208f613527565b5b0492506020810190505b662386f26fc1000083106120c957662386f26fc1000083816120bf576120be613527565b5b0492506010810190505b6305f5e10083106120f2576305f5e10083816120e8576120e7613527565b5b0492506008810190505b612710831061211757612710838161210d5761210c613527565b5b0492506004810190505b6064831061213a57606483816121305761212f613527565b5b0492506002810190505b600a8310612149576001810190505b80915050919050565b6040518060c001604052806000815260200160608152602001606081526020016000815260200160008152602001600081525090565b82805461219490612b98565b90600052602060002090601f0160209004810192826121b657600085556121fd565b82601f106121cf57805160ff19168380011785556121fd565b828001600101855582156121fd579182015b828111156121fc5782518255916020019190600101906121e1565b5b50905061220a919061220e565b5090565b5b8082111561222757600081600090555060010161220f565b5090565b6000604051905090565b600080fd5b600080fd5b6000819050919050565b6122528161223f565b811461225d57600080fd5b50565b60008135905061226f81612249565b92915050565b600080fd5b600080fd5b6000601f19601f8301169050919050565b7f4e487b7100000000000000000000000000000000000000000000000000000000600052604160045260246000fd5b6122c88261227f565b810181811067ffffffffffffffff821117156122e7576122e6612290565b5b80604052505050565b60006122fa61222b565b905061230682826122bf565b919050565b600067ffffffffffffffff82111561232657612325612290565b5b61232f8261227f565b9050602081019050919050565b82818337600083830152505050565b600061235e6123598461230b565b6122f0565b90508281526020810184848401111561237a5761237961227a565b5b61238584828561233c565b509392505050565b600082601f8301126123a2576123a1612275565b5b81356123b284826020860161234b565b91505092915050565b600080604083850312156123d2576123d1612235565b5b60006123e085828601612260565b925050602083013567ffffffffffffffff8111156124015761240061223a565b5b61240d8582860161238d565b9150509250929050565b60008115159050919050565b61242c81612417565b82525050565b60006020820190506124476000830184612423565b92915050565b60007fffffffff0000000000000000000000000000000000000000000000000000000082169050919050565b6124828161244d565b811461248d57600080fd5b50565b60008135905061249f81612479565b92915050565b6000602082840312156124bb576124ba612235565b5b60006124c984828501612490565b91505092915050565b600081519050919050565b600082825260208201905092915050565b60005b8381101561250c5780820151818401526020810190506124f1565b8381111561251b576000848401525b50505050565b600061252c826124d2565b61253681856124dd565b93506125468185602086016124ee565b61254f8161227f565b840191505092915050565b600060208201905081810360008301526125748184612521565b905092915050565b60006020828403121561259257612591612235565b5b60006125a084828501612260565b91505092915050565b600073ffffffffffffffffffffffffffffffffffffffff82169050919050565b60006125d4826125a9565b9050919050565b6125e4816125c9565b82525050565b60006020820190506125ff60008301846125db565b92915050565b61260e816125c9565b811461261957600080fd5b50565b60008135905061262b81612605565b92915050565b6000806040838503121561264857612647612235565b5b60006126568582860161261c565b925050602061266785828601612260565b9150509250929050565b60008060006060848603121561268a57612689612235565b5b60006126988682870161261c565b93505060206126a98682870161261c565b92505060406126ba86828701612260565b9150509250925092565b6000602082840312156126da576126d9612235565b5b60006126e88482850161261c565b91505092915050565b6126fa8161223f565b82525050565b600060208201905061271560008301846126f1565b92915050565b60008060008060008060c0878903121561273857612737612235565b5b600061274689828a01612260565b965050602087013567ffffffffffffffff8111156127675761276661223a565b5b61277389828a0161238d565b955050604087013567ffffffffffffffff8111156127945761279361223a565b5b6127a089828a0161238d565b94505060606127b189828a01612260565b93505060806127c289828a01612260565b92505060a06127d389828a01612260565b9150509295509295509295565b6127e98161223f565b82525050565b600082825260208201905092915050565b600061280b826124d2565b61281581856127ef565b93506128258185602086016124ee565b61282e8161227f565b840191505092915050565b600060c08301600083015161285160008601826127e0565b50602083015184820360208601526128698282612800565b915050604083015184820360408601526128838282612800565b915050606083015161289860608601826127e0565b5060808301516128ab60808601826127e0565b5060a08301516128be60a08601826127e0565b508091505092915050565b60006040820190506128de60008301856126f1565b81810360208301526128f08184612839565b90509392505050565b61290281612417565b811461290d57600080fd5b50565b60008135905061291f816128f9565b92915050565b6000806040838503121561293c5761293b612235565b5b600061294a8582860161261c565b925050602061295b85828601612910565b9150509250929050565b600067ffffffffffffffff8211156129805761297f612290565b5b6129898261227f565b9050602081019050919050565b60006129a96129a484612965565b6122f0565b9050828152602081018484840111156129c5576129c461227a565b5b6129d084828561233c565b509392505050565b600082601f8301126129ed576129ec612275565b5b81356129fd848260208601612996565b91505092915050565b60008060008060808587031215612a2057612a1f612235565b5b6000612a2e8782880161261c565b9450506020612a3f8782880161261c565b9350506040612a5087828801612260565b925050606085013567ffffffffffffffff811115612a7157612a7061223a565b5b612a7d878288016129d8565b91505092959194509250565b6000819050919050565b612a9c81612a89565b82525050565b6000602082019050612ab76000830184612a93565b92915050565b60008060408385031215612ad457612ad3612235565b5b6000612ae28582860161261c565b9250506020612af38582860161261c565b9150509250929050565b7f546f6b656e206e6f742070726573656e74000000000000000000000000000000600082015250565b6000612b336011836124dd565b9150612b3e82612afd565b602082019050919050565b60006020820190508181036000830152612b6281612b26565b9050919050565b7f4e487b7100000000000000000000000000000000000000000000000000000000600052602260045260246000fd5b60006002820490506001821680612bb057607f821691505b60208210811415612bc457612bc3612b69565b5b50919050565b7f4552433732313a20617070726f76616c20746f2063757272656e74206f776e6560008201527f7200000000000000000000000000000000000000000000000000000000000000602082015250565b6000612c266021836124dd565b9150612c3182612bca565b604082019050919050565b60006020820190508181036000830152612c5581612c19565b9050919050565b7f4552433732313a20617070726f76652063616c6c6572206973206e6f7420746f60008201527f6b656e206f776e6572206f7220617070726f76656420666f7220616c6c000000602082015250565b6000612cb8603d836124dd565b9150612cc382612c5c565b604082019050919050565b60006020820190508181036000830152612ce781612cab565b9050919050565b7f4552433732313a2063616c6c6572206973206e6f7420746f6b656e206f776e6560008201527f72206f7220617070726f76656400000000000000000000000000000000000000602082015250565b6000612d4a602d836124dd565b9150612d5582612cee565b604082019050919050565b60006020820190508181036000830152612d7981612d3d565b9050919050565b7f4552433732313a20696e76616c696420746f6b656e2049440000000000000000600082015250565b6000612db66018836124dd565b9150612dc182612d80565b602082019050919050565b60006020820190508181036000830152612de581612da9565b9050919050565b7f4552433732313a2061646472657373207a65726f206973206e6f74206120766160008201527f6c6964206f776e65720000000000000000000000000000000000000000000000602082015250565b6000612e486029836124dd565b9150612e5382612dec565b604082019050919050565b60006020820190508181036000830152612e7781612e3b565b9050919050565b7f546f6b656e20616c726561647920657869737473000000000000000000000000600082015250565b6000612eb46014836124dd565b9150612ebf82612e7e565b602082019050919050565b60006020820190508181036000830152612ee381612ea7565b9050919050565b7f496e73756666696369656e7420416d6f756e7420506169640000000000000000600082015250565b6000612f206018836124dd565b9150612f2b82612eea565b602082019050919050565b60006020820190508181036000830152612f4f81612f13565b9050919050565b7f4e487b7100000000000000000000000000000000000000000000000000000000600052601160045260246000fd5b6000612f9082612a89565b91507f7fffffffffffffffffffffffffffffffffffffffffffffffffffffffffffffff821415612fc357612fc2612f56565b5b600182019050919050565b7f45524337323155524953746f726167653a2055524920736574206f66206e6f6e60008201527f6578697374656e7420746f6b656e000000000000000000000000000000000000602082015250565b600061302a602e836124dd565b915061303582612fce565b604082019050919050565b600060208201905081810360008301526130598161301d565b9050919050565b7f4552433732313a207472616e736665722066726f6d20696e636f72726563742060008201527f6f776e6572000000000000000000000000000000000000000000000000000000602082015250565b60006130bc6025836124dd565b91506130c782613060565b604082019050919050565b600060208201905081810360008301526130eb816130af565b9050919050565b7f4552433732313a207472616e7366657220746f20746865207a65726f2061646460008201527f7265737300000000000000000000000000000000000000000000000000000000602082015250565b600061314e6024836124dd565b9150613159826130f2565b604082019050919050565b6000602082019050818103600083015261317d81613141565b9050919050565b7f4552433732313a20617070726f766520746f2063616c6c657200000000000000600082015250565b60006131ba6019836124dd565b91506131c582613184565b602082019050919050565b600060208201905081810360008301526131e9816131ad565b9050919050565b7f4552433732313a207472616e7366657220746f206e6f6e20455243373231526560008201527f63656976657220696d706c656d656e7465720000000000000000000000000000602082015250565b600061324c6032836124dd565b9150613257826131f0565b604082019050919050565b6000602082019050818103600083015261327b8161323f565b9050919050565b600081905092915050565b6000613298826124d2565b6132a28185613282565b93506132b28185602086016124ee565b80840191505092915050565b60006132ca828561328d565b91506132d6828461328d565b91508190509392505050565b60006132ed8261223f565b91506132f88361223f565b92508282101561330b5761330a612f56565b5b828203905092915050565b60006133218261223f565b915061332c8361223f565b9250827fffffffffffffffffffffffffffffffffffffffffffffffffffffffffffffffff0382111561336157613360612f56565b5b828201905092915050565b600081519050919050565b600082825260208201905092915050565b60006133938261336c565b61339d8185613377565b93506133ad8185602086016124ee565b6133b68161227f565b840191505092915050565b60006080820190506133d660008301876125db565b6133e360208301866125db565b6133f060408301856126f1565b81810360608301526134028184613388565b905095945050505050565b60008151905061341c81612479565b92915050565b60006020828403121561343857613437612235565b5b60006134468482850161340d565b91505092915050565b7f4552433732313a206d696e7420746f20746865207a65726f2061646472657373600082015250565b60006134856020836124dd565b91506134908261344f565b602082019050919050565b600060208201905081810360008301526134b481613478565b9050919050565b7f4552433732313a20746f6b656e20616c7265616479206d696e74656400000000600082015250565b60006134f1601c836124dd565b91506134fc826134bb565b602082019050919050565b60006020820190508181036000830152613520816134e4565b9050919050565b7f4e487b7100000000000000000000000000000000000000000000000000000000600052601260045260246000fdfea26469706673582212202042480684f16ea121b016e5278396e1ff9da547ae50d2276662a6f2b7699c9f64736f6c63430008090033",
  "linkReferences": {},
  "deployedLinkReferences": {}
}